{
  "contractName": "trainSuretyData",
  "abi": [
    {
      "inputs": [
        {
          "name": "firstrailline",
          "type": "address"
        }
      ],
      "payable": false,
      "stateMutability": "nonpayable",
      "type": "constructor"
    },
    {
      "payable": true,
      "stateMutability": "payable",
      "type": "fallback"
    },
    {
      "anonymous": false,
      "inputs": [
        {
          "indexed": false,
          "name": "caller",
          "type": "address"
        }
      ],
      "name": "AuthorizeCaller",
      "type": "event"
    },
    {
      "anonymous": false,
      "inputs": [
        {
          "indexed": false,
          "name": "raillineAddress",
          "type": "address"
        },
        {
          "indexed": false,
          "name": "exists",
          "type": "bool"
        },
        {
          "indexed": false,
          "name": "registered",
          "type": "bool"
        },
        {
          "indexed": false,
          "name": "funded",
          "type": "bool"
        },
        {
          "indexed": false,
          "name": "fundedCount",
          "type": "uint256"
        }
      ],
      "name": "raillineFunded",
      "type": "event"
    },
    {
      "anonymous": false,
      "inputs": [
        {
          "indexed": false,
          "name": "change",
          "type": "bool"
        }
      ],
      "name": "OperationalChange",
      "type": "event"
    },
    {
      "constant": true,
      "inputs": [],
      "name": "isOperational",
      "outputs": [
        {
          "name": "",
          "type": "bool"
        }
      ],
      "payable": false,
      "stateMutability": "view",
      "type": "function"
    },
    {
      "constant": false,
      "inputs": [
        {
          "name": "mode",
          "type": "bool"
        }
      ],
      "name": "setOperatingStatus",
      "outputs": [],
      "payable": false,
      "stateMutability": "nonpayable",
      "type": "function"
    },
    {
      "constant": false,
      "inputs": [
        {
          "name": "_address",
          "type": "address"
        }
      ],
      "name": "authorizeCaller",
      "outputs": [],
      "payable": false,
      "stateMutability": "nonpayable",
      "type": "function"
    },
    {
      "constant": false,
      "inputs": [
        {
          "name": "_address",
          "type": "address"
        }
      ],
      "name": "isAuthorized",
      "outputs": [
        {
          "name": "",
          "type": "bool"
        }
      ],
      "payable": false,
      "stateMutability": "nonpayable",
      "type": "function"
    },
    {
      "constant": false,
      "inputs": [
        {
          "name": "_address",
          "type": "address"
        }
      ],
      "name": "isFunded",
      "outputs": [
        {
          "name": "",
          "type": "bool"
        }
      ],
      "payable": false,
      "stateMutability": "nonpayable",
      "type": "function"
    },
    {
      "constant": true,
      "inputs": [],
      "name": "getRegisteredraillines",
      "outputs": [
        {
          "name": "",
          "type": "uint256"
        }
      ],
      "payable": false,
      "stateMutability": "view",
      "type": "function"
    },
    {
      "constant": true,
      "inputs": [
        {
          "name": "_address",
          "type": "address"
        }
      ],
      "name": "raillineRegistered",
      "outputs": [
        {
          "name": "",
          "type": "bool"
        }
      ],
      "payable": false,
      "stateMutability": "view",
      "type": "function"
    },
    {
      "constant": false,
      "inputs": [
        {
          "name": "raillineAddress",
          "type": "address"
        }
      ],
      "name": "getraillineVotes",
      "outputs": [
        {
          "name": "",
          "type": "uint256"
        }
      ],
      "payable": false,
      "stateMutability": "nonpayable",
      "type": "function"
    },
    {
      "constant": true,
      "inputs": [
        {
          "name": "raillineAddress",
          "type": "address"
        }
      ],
      "name": "raillineExists",
      "outputs": [
        {
          "name": "",
          "type": "bool"
        }
      ],
      "payable": false,
      "stateMutability": "view",
      "type": "function"
    },
    {
      "constant": true,
      "inputs": [],
      "name": "numberOfFundedraillines",
      "outputs": [
        {
          "name": "",
          "type": "uint256"
        }
      ],
      "payable": false,
      "stateMutability": "view",
      "type": "function"
    },
    {
      "constant": true,
      "inputs": [],
      "name": "getRegisteredraillinesAddresses",
      "outputs": [
        {
          "name": "",
          "type": "address[]"
        }
      ],
      "payable": false,
      "stateMutability": "view",
      "type": "function"
    },
    {
      "constant": true,
      "inputs": [],
      "name": "gettrainNumber",
      "outputs": [
        {
          "name": "",
          "type": "bytes32[]"
        }
      ],
      "payable": false,
      "stateMutability": "view",
      "type": "function"
    },
    {
      "constant": false,
      "inputs": [
        {
          "name": "raillineAddress",
          "type": "address"
        },
        {
          "name": "registered",
          "type": "bool"
        },
        {
          "name": "raillineName",
          "type": "string"
        }
      ],
      "name": "registerrailline",
      "outputs": [],
      "payable": false,
      "stateMutability": "nonpayable",
      "type": "function"
    },
    {
      "constant": false,
      "inputs": [
        {
          "name": "_address",
          "type": "address"
        }
      ],
      "name": "setraillineRegistered",
      "outputs": [],
      "payable": false,
      "stateMutability": "nonpayable",
      "type": "function"
    },
    {
      "constant": false,
      "inputs": [
        {
          "name": "code",
          "type": "bytes32"
        }
      ],
      "name": "addtrainCode",
      "outputs": [],
      "payable": false,
      "stateMutability": "nonpayable",
      "type": "function"
    },
    {
      "constant": false,
      "inputs": [
        {
          "name": "raillineAddress",
          "type": "address"
        }
      ],
      "name": "buy",
      "outputs": [],
      "payable": true,
      "stateMutability": "payable",
      "type": "function"
    },
    {
      "constant": true,
      "inputs": [],
      "name": "creditInsurees",
      "outputs": [],
      "payable": false,
      "stateMutability": "pure",
      "type": "function"
    },
    {
      "constant": true,
      "inputs": [],
      "name": "pay",
      "outputs": [],
      "payable": false,
      "stateMutability": "pure",
      "type": "function"
    },
    {
      "constant": false,
      "inputs": [
        {
          "name": "raillineAddress",
          "type": "address"
        }
      ],
      "name": "fund",
      "outputs": [],
      "payable": true,
      "stateMutability": "payable",
      "type": "function"
    },
    {
      "constant": false,
      "inputs": [
        {
          "name": "votingFor",
          "type": "address"
        },
        {
          "name": "voter",
          "type": "address"
        }
      ],
      "name": "vote",
      "outputs": [],
      "payable": false,
      "stateMutability": "nonpayable",
      "type": "function"
    }
  ],
  "bytecode": "0x60806040526001600060146101000a81548160ff0219169083151502179055506000600455600060055560006006553480156200003b57600080fd5b50604051602080620023aa83398101806040528101908080519060200190929190505050336000806101000a81548173ffffffffffffffffffffffffffffffffffffffff021916908373ffffffffffffffffffffffffffffffffffffffff16021790555060e0604051908101604052806040805190810160405280600c81526020017f496e7374616e746961746f72000000000000000000000000000000000000000081525081526020016001151581526020016001151581526020016000151581526020016000604051908082528060200260200182016040528015620001325781602001602082028038833980820191505090505b508152602001602060405190810160405280600081525081526020016000815250600160008373ffffffffffffffffffffffffffffffffffffffff1673ffffffffffffffffffffffffffffffffffffffff1681526020019081526020016000206000820151816000019080519060200190620001b092919062000303565b5060208201518160010160006101000a81548160ff02191690831515021790555060408201518160010160016101000a81548160ff02191690831515021790555060608201518160010160026101000a81548160ff02191690831515021790555060808201518160020190805190602001906200022f9291906200038a565b5060a08201518160030160008201518160000155505060c0820151816005015590505060028190806001815401808255809150509060018203906000526020600020016000909192909190916101000a81548173ffffffffffffffffffffffffffffffffffffffff021916908373ffffffffffffffffffffffffffffffffffffffff16021790555050620002de6001600454620002e66401000000000262001e03179091906401000000009004565b505062000432565b60008183019050828110151515620002fa57fe5b80905092915050565b828054600181600116156101000203166002900490600052602060002090601f016020900481019282601f106200034657805160ff191683800117855562000377565b8280016001018555821562000377579182015b828111156200037657825182559160200191906001019062000359565b5b509050620003869190620003e2565b5090565b828054828255906000526020600020908101928215620003cf579160200282015b82811115620003ce578251829060001916905591602001919060010190620003ab565b5b509050620003de91906200040a565b5090565b6200040791905b8082111562000403576000816000905550600101620003e9565b5090565b90565b6200042f91905b808211156200042b57600081600090555060010162000411565b5090565b90565b611f6880620004426000396000f300608060405260043610610112576000357c0100000000000000000000000000000000000000000000000000000000900463ffffffff168063110466ed1461011d5780631afa74e51461014c5780631b9265b8146101af57806323024408146101c65780632c388d5d146101fc57806336cee4841461023f5780634364d7681461025657806344962217146102815780635689b249146102dc578063577d71be146103375780636caaff43146103925780638777b36a146103fe5780638ba1cfda1461046a57806393d3a6fd1461049557806397b7ecdf146104c6578063ac49d8a114610509578063cd905dff14610570578063dd7530151461059f578063f088d547146105f6578063fe9fbb801461062c575b61011b33610687565b005b34801561012957600080fd5b5061014a600480360381019080803515159060200190929190505050610aba565b005b34801561015857600080fd5b506101ad600480360381019080803573ffffffffffffffffffffffffffffffffffffffff169060200190929190803573ffffffffffffffffffffffffffffffffffffffff169060200190929190505050610bd6565b005b3480156101bb57600080fd5b506101c4610e78565b005b6101fa600480360381019080803573ffffffffffffffffffffffffffffffffffffffff169060200190929190505050610687565b005b34801561020857600080fd5b5061023d600480360381019080803573ffffffffffffffffffffffffffffffffffffffff169060200190929190505050610e7a565b005b34801561024b57600080fd5b506102546110a6565b005b34801561026257600080fd5b5061026b6110a8565b6040518082815260200191505060405180910390f35b34801561028d57600080fd5b506102c2600480360381019080803573ffffffffffffffffffffffffffffffffffffffff16906020019092919050505061115b565b604051808215151515815260200191505060405180910390f35b3480156102e857600080fd5b5061031d600480360381019080803573ffffffffffffffffffffffffffffffffffffffff1690602001909291905050506111b4565b604051808215151515815260200191505060405180910390f35b34801561034357600080fd5b50610378600480360381019080803573ffffffffffffffffffffffffffffffffffffffff16906020019092919050505061120d565b604051808215151515815260200191505060405180910390f35b34801561039e57600080fd5b506103a7611266565b6040518080602001828103825283818151815260200191508051906020019060200280838360005b838110156103ea5780820151818401526020810190506103cf565b505050509050019250505060405180910390f35b34801561040a57600080fd5b506104136113ac565b6040518080602001828103825283818151815260200191508051906020019060200280838360005b8381101561045657808201518184015260208101905061043b565b505050509050019250505060405180910390f35b34801561047657600080fd5b5061047f6114e4565b6040518082815260200191505060405180910390f35b3480156104a157600080fd5b506104c460048036038101908080356000191690602001909291905050506114ee565b005b3480156104d257600080fd5b50610507600480360381019080803573ffffffffffffffffffffffffffffffffffffffff169060200190929190505050611563565b005b34801561051557600080fd5b5061056e600480360381019080803573ffffffffffffffffffffffffffffffffffffffff169060200190929190803515159060200190929190803590602001908201803590602001919091929391929390505050611872565b005b34801561057c57600080fd5b50610585611b67565b604051808215151515815260200191505060405180910390f35b3480156105ab57600080fd5b506105e0600480360381019080803573ffffffffffffffffffffffffffffffffffffffff169060200190929190505050611b7d565b6040518082815260200191505060405180910390f35b61062a600480360381019080803573ffffffffffffffffffffffffffffffffffffffff169060200190929190505050611c75565b005b34801561063857600080fd5b5061066d600480360381019080803573ffffffffffffffffffffffffffffffffffffffff169060200190929190505050611dad565b604051808215151515815260200191505060405180910390f35b600060149054906101000a900460ff161515610731576040517f08c379a00000000000000000000000000000000000000000000000000000000081526004018080602001828103825260258152602001807f436f6e74726163742069732063757272656e746c79206e6f74206f706572617481526020017f696f6e616c00000000000000000000000000000000000000000000000000000081525060400191505060405180910390fd5b80600160008273ffffffffffffffffffffffffffffffffffffffff1673ffffffffffffffffffffffffffffffffffffffff16815260200190815260200160002060010160019054906101000a900460ff16151561081c576040517f08c379a00000000000000000000000000000000000000000000000000000000081526004018080602001828103825260358152602001807f7261696c776179206973206e6f74207265676973746572656420616e64206e6f81526020017f742070617274206f66207468652070726f6772616d000000000000000000000081525060400191505060405180910390fd5b678ac7230489e8000034101515156108c2576040517f08c379a000000000000000000000000000000000000000000000000000000000815260040180806020018281038252603d8152602001807f546865207261696c77617920646964206e6f742070617920746865206d696e6981526020017f6d756d20726571756972656d656e747320746f2062652066756e64656400000081525060400191505060405180910390fd5b60018060008473ffffffffffffffffffffffffffffffffffffffff1673ffffffffffffffffffffffffffffffffffffffff16815260200190815260200160002060010160026101000a81548160ff0219169083151502179055506109326001600554611e0390919063ffffffff16565b6005819055507f75115b2d0d260e06747a21d2d5fbec1d28d054ce1793d4fa479b358130d3145182600160008573ffffffffffffffffffffffffffffffffffffffff1673ffffffffffffffffffffffffffffffffffffffff16815260200190815260200160002060010160009054906101000a900460ff16600160008673ffffffffffffffffffffffffffffffffffffffff1673ffffffffffffffffffffffffffffffffffffffff16815260200190815260200160002060010160019054906101000a900460ff16600160008773ffffffffffffffffffffffffffffffffffffffff1673ffffffffffffffffffffffffffffffffffffffff16815260200190815260200160002060010160029054906101000a900460ff16600554604051808673ffffffffffffffffffffffffffffffffffffffff1673ffffffffffffffffffffffffffffffffffffffff1681526020018515151515815260200184151515158152602001831515151581526020018281526020019550505050505060405180910390a15050565b6000809054906101000a900473ffffffffffffffffffffffffffffffffffffffff1673ffffffffffffffffffffffffffffffffffffffff163373ffffffffffffffffffffffffffffffffffffffff16141515610b7e576040517f08c379a000000000000000000000000000000000000000000000000000000000815260040180806020018281038252601c8152602001807f43616c6c6572206973206e6f7420636f6e7472616374206f776e65720000000081525060200191505060405180910390fd5b80600060146101000a81548160ff0219169083151502179055507f36e35b5cbb5748103df55ed5351bd62fef2c1d93761dd69c91b21e5c6862490381604051808215151515815260200191505060405180910390a150565b600060149054906101000a900460ff161515610c80576040517f08c379a00000000000000000000000000000000000000000000000000000000081526004018080602001828103825260258152602001807f436f6e74726163742069732063757272656e746c79206e6f74206f706572617481526020017f696f6e616c00000000000000000000000000000000000000000000000000000081525060400191505060405180910390fd5b600160008373ffffffffffffffffffffffffffffffffffffffff1673ffffffffffffffffffffffffffffffffffffffff16815260200190815260200160002060030160010160008273ffffffffffffffffffffffffffffffffffffffff1673ffffffffffffffffffffffffffffffffffffffff16815260200190815260200160002060009054906101000a900460ff16151515610d85576040517f08c379a00000000000000000000000000000000000000000000000000000000081526004018080602001828103825260158152602001807f7261696c77617920616c726561647920766f746564000000000000000000000081525060200191505060405180910390fd5b60018060008473ffffffffffffffffffffffffffffffffffffffff1673ffffffffffffffffffffffffffffffffffffffff16815260200190815260200160002060030160010160008373ffffffffffffffffffffffffffffffffffffffff1673ffffffffffffffffffffffffffffffffffffffff16815260200190815260200160002060006101000a81548160ff021916908315150217905550600160008373ffffffffffffffffffffffffffffffffffffffff1673ffffffffffffffffffffffffffffffffffffffff168152602001908152602001600020600301600001600081548092919060010191905055505050565b565b6000809054906101000a900473ffffffffffffffffffffffffffffffffffffffff1673ffffffffffffffffffffffffffffffffffffffff163373ffffffffffffffffffffffffffffffffffffffff16141515610f3e576040517f08c379a000000000000000000000000000000000000000000000000000000000815260040180806020018281038252601c8152602001807f43616c6c6572206973206e6f7420636f6e7472616374206f776e65720000000081525060200191505060405180910390fd5b600060149054906101000a900460ff161515610fe8576040517f08c379a00000000000000000000000000000000000000000000000000000000081526004018080602001828103825260258152602001807f436f6e74726163742069732063757272656e746c79206e6f74206f706572617481526020017f696f6e616c00000000000000000000000000000000000000000000000000000081525060400191505060405180910390fd5b6001600360008373ffffffffffffffffffffffffffffffffffffffff1673ffffffffffffffffffffffffffffffffffffffff16815260200190815260200160002060006101000a81548160ff0219169083151502179055507fc4bcfb88e75b36f7b946fb0affb57e1f03fed8d0d5ddbe56b631d09c1188b28381604051808273ffffffffffffffffffffffffffffffffffffffff1673ffffffffffffffffffffffffffffffffffffffff16815260200191505060405180910390a150565b565b60008060149054906101000a900460ff161515611153576040517f08c379a00000000000000000000000000000000000000000000000000000000081526004018080602001828103825260258152602001807f436f6e74726163742069732063757272656e746c79206e6f74206f706572617481526020017f696f6e616c00000000000000000000000000000000000000000000000000000081525060400191505060405180910390fd5b600554905090565b6000600160008373ffffffffffffffffffffffffffffffffffffffff1673ffffffffffffffffffffffffffffffffffffffff16815260200190815260200160002060010160009054906101000a900460ff169050919050565b6000600160008373ffffffffffffffffffffffffffffffffffffffff1673ffffffffffffffffffffffffffffffffffffffff16815260200190815260200160002060010160029054906101000a900460ff169050919050565b6000600160008373ffffffffffffffffffffffffffffffffffffffff1673ffffffffffffffffffffffffffffffffffffffff16815260200190815260200160002060010160009054906101000a900460ff169050919050565b6060600060149054906101000a900460ff161515611312576040517f08c379a00000000000000000000000000000000000000000000000000000000081526004018080602001828103825260258152602001807f436f6e74726163742069732063757272656e746c79206e6f74206f706572617481526020017f696f6e616c00000000000000000000000000000000000000000000000000000081525060400191505060405180910390fd5b600160003373ffffffffffffffffffffffffffffffffffffffff1673ffffffffffffffffffffffffffffffffffffffff1681526020019081526020016000206002018054806020026020016040519081016040528092919081815260200182805480156113a257602002820191906000526020600020905b8154600019168152602001906001019080831161138a575b5050505050905090565b6060600060149054906101000a900460ff161515611458576040517f08c379a00000000000000000000000000000000000000000000000000000000081526004018080602001828103825260258152602001807f436f6e74726163742069732063757272656e746c79206e6f74206f706572617481526020017f696f6e616c00000000000000000000000000000000000000000000000000000081525060400191505060405180910390fd5b60028054806020026020016040519081016040528092919081815260200182805480156114da57602002820191906000526020600020905b8160009054906101000a900473ffffffffffffffffffffffffffffffffffffffff1673ffffffffffffffffffffffffffffffffffffffff1681526020019060010190808311611490575b5050505050905090565b6000600454905090565b600160003373ffffffffffffffffffffffffffffffffffffffff1673ffffffffffffffffffffffffffffffffffffffff16815260200190815260200160002060020181908060018154018082558091505090600182039060005260206000200160009091929091909150906000191690555050565b600060149054906101000a900460ff16151561160d576040517f08c379a00000000000000000000000000000000000000000000000000000000081526004018080602001828103825260258152602001807f436f6e74726163742069732063757272656e746c79206e6f74206f706572617481526020017f696f6e616c00000000000000000000000000000000000000000000000000000081525060400191505060405180910390fd5b80600160008273ffffffffffffffffffffffffffffffffffffffff1673ffffffffffffffffffffffffffffffffffffffff16815260200190815260200160002060010160009054906101000a900460ff1615156116d2576040517f08c379a00000000000000000000000000000000000000000000000000000000081526004018080602001828103825260168152602001807f7261696c77617920646f6573206e6f742065786973740000000000000000000081525060200191505060405180910390fd5b600160008373ffffffffffffffffffffffffffffffffffffffff1673ffffffffffffffffffffffffffffffffffffffff16815260200190815260200160002060010160019054906101000a900460ff16151515611797576040517f08c379a000000000000000000000000000000000000000000000000000000000815260040180806020018281038252601a8152602001807f7261696c77617920616c7265616479207265676973746572656400000000000081525060200191505060405180910390fd5b60018060008473ffffffffffffffffffffffffffffffffffffffff1673ffffffffffffffffffffffffffffffffffffffff16815260200190815260200160002060010160016101000a81548160ff02191690831515021790555060028290806001815401808255809150509060018203906000526020600020016000909192909190916101000a81548173ffffffffffffffffffffffffffffffffffffffff021916908373ffffffffffffffffffffffffffffffffffffffff1602179055505061186d6001600454611e0390919063ffffffff16565b505050565b600060149054906101000a900460ff16151561191c576040517f08c379a00000000000000000000000000000000000000000000000000000000081526004018080602001828103825260258152602001807f436f6e74726163742069732063757272656e746c79206e6f74206f706572617481526020017f696f6e616c00000000000000000000000000000000000000000000000000000081525060400191505060405180910390fd5b60e06040519081016040528083838080601f0160208091040260200160405190810160405280939291908181526020018383808284378201915050505050508152602001600115158152602001841515815260200160001515815260200160006040519080825280602002602001820160405280156119aa5781602001602082028038833980820191505090505b508152602001602060405190810160405280600081525081526020016000815250600160008673ffffffffffffffffffffffffffffffffffffffff1673ffffffffffffffffffffffffffffffffffffffff1681526020019081526020016000206000820151816000019080519060200190611a26929190611e1f565b5060208201518160010160006101000a81548160ff02191690831515021790555060408201518160010160016101000a81548160ff02191690831515021790555060608201518160010160026101000a81548160ff0219169083151502179055506080820151816002019080519060200190611aa3929190611e9f565b5060a08201518160030160008201518160000155505060c08201518160050155905050611adc6001600654611e0390919063ffffffff16565b508215611b615760028490806001815401808255809150509060018203906000526020600020016000909192909190916101000a81548173ffffffffffffffffffffffffffffffffffffffff021916908373ffffffffffffffffffffffffffffffffffffffff16021790555050611b5f6001600454611e0390919063ffffffff16565b505b50505050565b60008060149054906101000a900460ff16905090565b60008060149054906101000a900460ff161515611c28576040517f08c379a00000000000000000000000000000000000000000000000000000000081526004018080602001828103825260258152602001807f436f6e74726163742069732063757272656e746c79206e6f74206f706572617481526020017f696f6e616c00000000000000000000000000000000000000000000000000000081525060400191505060405180910390fd5b600160008373ffffffffffffffffffffffffffffffffffffffff1673ffffffffffffffffffffffffffffffffffffffff168152602001908152602001600020600301600001549050919050565b600060149054906101000a900460ff161515611d1f576040517f08c379a00000000000000000000000000000000000000000000000000000000081526004018080602001828103825260258152602001807f436f6e74726163742069732063757272656e746c79206e6f74206f706572617481526020017f696f6e616c00000000000000000000000000000000000000000000000000000081525060400191505060405180910390fd5b60018060008373ffffffffffffffffffffffffffffffffffffffff1673ffffffffffffffffffffffffffffffffffffffff1681526020019081526020016000206005015401600160008373ffffffffffffffffffffffffffffffffffffffff1673ffffffffffffffffffffffffffffffffffffffff1681526020019081526020016000206005018190555050565b6000600360008373ffffffffffffffffffffffffffffffffffffffff1673ffffffffffffffffffffffffffffffffffffffff16815260200190815260200160002060009054906101000a900460ff169050919050565b60008183019050828110151515611e1657fe5b80905092915050565b828054600181600116156101000203166002900490600052602060002090601f016020900481019282601f10611e6057805160ff1916838001178555611e8e565b82800160010185558215611e8e579182015b82811115611e8d578251825591602001919060010190611e72565b5b509050611e9b9190611ef2565b5090565b828054828255906000526020600020908101928215611ee1579160200282015b82811115611ee0578251829060001916905591602001919060010190611ebf565b5b509050611eee9190611f17565b5090565b611f1491905b80821115611f10576000816000905550600101611ef8565b5090565b90565b611f3991905b80821115611f35576000816000905550600101611f1d565b5090565b905600a165627a7a72305820f41d5ac8b24db8b1886c937f48925668684cab8abe84a0a07b489864a4709a660029",
  "source": "pragma solidity >=0.4.25;\n\nimport \"../node_modules/openzeppelin-solidity/contracts/math/SafeMath.sol\";\n\ncontract trainSuretyData {\n    using SafeMath for uint256;\n\n    /********************************************************************************************/\n    /*                                       DATA VARIABLES                                     */\n    /********************************************************************************************/\n    struct Votes {\n        uint votesCounted;\n        mapping(address => bool) addressFromVotes;\n    }\n    \n    struct railline {\n        string name;\n        bool exists;\n        bool registered;\n        bool funded; //is this \n        bytes32[] trainKeys;\n        Votes votes;\n        uint numberOfInsurance;\n    }\n\n    // struct Passenger {\n    //     string name;\n    // }\n\n    address private contractOwner;                                      // Account used to deploy contract\n    bool private operational = true;                                    // Blocks all state changes throughout the contract if false\n    mapping (address => railline) private raillines;\n    \n    address[] registeredraillineAddresses;\n    mapping (address => bool) private authorizedCallers;\n    uint private registeredraillines = 0;\n    uint private fundedraillines = 0;\n    uint private raillinesCount = 0;\n    /********************************************************************************************/\n    /*                                       EVENT DEFINITIONS                                  */\n    /********************************************************************************************/\n\n    // event raillineExists()\n    event AuthorizeCaller(address caller);\n    event raillineFunded(address raillineAddress, bool exists, bool registered, bool funded, uint fundedCount);\n    event OperationalChange(bool change);\n    /**\n    * @dev Constructor\n    *      The deploying account becomes contractOwner\n    */\n    constructor\n                                ( address firstrailline\n                                ) \n                                public \n    {\n        contractOwner = msg.sender;\n        raillines[firstrailline] =  railline(\"Instantiator\", true, true, false, new bytes32[](0), Votes(0), 0);\n        registeredraillineAddresses.push(firstrailline);\n        registeredraillines.add(1);\n    }   \n\n    /********************************************************************************************/\n    /*                                       FUNCTION MODIFIERS                                 */\n    /********************************************************************************************/\n\n    // Modifiers help avoid duplication of code. They are typically used to validate something\n    // before a function is allowed to be executed.\n\n    /**\n    * @dev Modifier that requires the \"operational\" boolean variable to be \"true\"\n    *      This is used on all state changing functions to pause the contract in \n    *      the event there is an issue that needs to be fixed\n    */\n    modifier requireIsOperational() {\n        require(operational, \"Contract is currently not operational\");\n        _;  // All modifiers require an \"_\" which indicates where the function body will be added\n    }\n\n    /**\n    * @dev Modifier that requires the \"ContractOwner\" account to be the function caller\n    */\n    modifier requireContractOwner(){\n        require(msg.sender == contractOwner, \"Caller is not contract owner\");\n        _;\n    }\n\n    modifier requireraillineRegistration(address raillineCompanyAddress) {\n        require(raillines[raillineCompanyAddress].registered, \"railline is not registered and not part of the program\");\n        _;\n    } \n\n    modifier requireraillineExists(address _address) {\n        require (raillines[_address].exists, \"railline does not exist\");\n        _;\n    }\n    /********************************************************************************************/\n    /*                                       UTILITY FUNCTIONS                                  */\n    /********************************************************************************************/\n\n    /**\n    * @dev Get operating status of contract\n    *\n    * @return A bool that is the current operating status\n    */      \n    function isOperational() \n                            public \n                            view \n                            returns(bool) {\n        return operational;\n    }\n\n   function setOperatingStatus\n                            (\n                                bool mode\n                            ) \n                            external\n                            requireContractOwner \n    {\n        operational = mode;\n        emit OperationalChange(mode);\n    }\n    /**\n    * @dev Sets contract operations on/off\n    *\n    * When operational mode is disabled, all write transactions except for this one will fail\n    */    \n\n\n    function authorizeCaller(address _address) public requireContractOwner requireIsOperational {\n        authorizedCallers[_address] = true;\n        emit AuthorizeCaller(_address);\n    }\n    function isAuthorized(address _address) public returns(bool) {\n        return authorizedCallers[_address];\n    }\n    function isFunded(address _address) public returns(bool) {\n        return raillines[_address].funded;\n    }\n    function getRegisteredraillines() public view returns(uint) {\n        return registeredraillines;\n    }\n    function raillineRegistered(address _address) public view returns(bool) {\n        return raillines[_address].exists;\n    }\n    function getraillineVotes(address raillineAddress) public requireIsOperational returns(uint) {\n        return raillines[raillineAddress].votes.votesCounted;\n    }\n    function raillineExists(address raillineAddress) public view returns(bool) {\n        return raillines[raillineAddress].exists;\n    } \n    function numberOfFundedraillines() public view requireIsOperational returns(uint) {\n        return fundedraillines;\n    }\n    function getRegisteredraillinesAddresses() public view requireIsOperational returns(address[] memory) {\n        return registeredraillineAddresses;\n    }\n    function gettrainNumber() public view requireIsOperational returns(bytes32[] memory) {\n        return raillines[msg.sender].trainKeys;\n    }\n    /********************************************************************************************/\n    /*                                     SMART CONTRACT FUNCTIONS                             */\n    /********************************************************************************************/\n\n   /**\n    * @dev Add an railline to the registration queue\n    *      Can only be called from trainSuretyApp contract\n    *\n    */   \n    function registerrailline\n                            (   \n                                address raillineAddress, \n                                bool registered,\n                                string raillineName\n                            )\n                            external\n                            requireIsOperational\n\n    {\n        \n        raillines[raillineAddress] = railline(raillineName, true, registered, false, new bytes32[](0), Votes(0), 0);\n        raillinesCount.add(1);\n        if (registered) {\n            registeredraillineAddresses.push(raillineAddress);\n            registeredraillines.add(1);\n        }\n    }\n\n    function setraillineRegistered(address _address) public requireIsOperational requireraillineExists(_address) {\n        require(!raillines[_address].registered, \"railline already registered\");\n        raillines[_address].registered = true;\n        registeredraillineAddresses.push(_address);\n        registeredraillines.add(1);\n\n    }\n\n   \n\n    function addtrainCode(bytes32 code) external {\n        raillines[msg.sender].trainKeys.push(code);\n    }\n\n\n   /**\n    * @dev Buy insurance for a train\n    *\n    */   \n\n    function buy(address raillineAddress)\n                            external\n                            payable\n                            requireIsOperational\n    {\n        \n        raillines[raillineAddress].numberOfInsurance = raillines[raillineAddress].numberOfInsurance + 1;\n    }\n\n    /**\n     *  @dev Credits payouts to insurees\n    */\n    function creditInsurees\n                                (\n                                )\n                                external\n                                pure\n    {\n    }\n\n    /**\n     *  @dev Transfers eligible payout funds to insuree\n     *\n    */\n    function pay\n                            (\n                            )\n                            external\n                            pure\n    {\n    }\n\n   /**\n    * @dev Initial funding for the insurance. Unless there are too many delayed trains\n    *      resulting in insurance payouts, the contract should be self-sustaining\n    *\n    */   \n    function fund\n                            (   \n                                address raillineAddress\n                            )\n                            public\n                            payable\n                            requireIsOperational requireraillineRegistration(raillineAddress) \n    {\n        // revert(\"This is the value\");\n        require(msg.value >= 10 ether, \"The railline did not pay the minimum requirements to be funded\");\n        raillines[raillineAddress].funded = true;\n        fundedraillines = fundedraillines.add(1);\n        emit raillineFunded(raillineAddress, raillines[raillineAddress].exists, raillines[raillineAddress].registered, raillines[raillineAddress].funded, fundedraillines);\n    }\n\n    function gettrainKey\n                        (\n                            address railline,\n                            string memory train,\n                            uint256 timestamp\n                        )\n                        pure\n                        internal\n                        returns(bytes32) \n    {\n        return keccak256(abi.encodePacked(railline, train, timestamp));\n    }\n\n    function vote (address votingFor, address voter) public requireIsOperational {\n        //They can't vote for themselves\n        require(!raillines[votingFor].votes.addressFromVotes[voter], \"railline already voted\");\n        raillines[votingFor].votes.addressFromVotes[voter] = true;\n        raillines[votingFor].votes.votesCounted++;\n    }\n    \n    /**\n    * @dev Fallback function for funding smart contract.\n    *\n    */\n    function() \n                            external \n                            payable \n    {\n        fund(msg.sender);\n    }\n\n\n}\n\n",
  "sourcePath": "D:\\Flight_Insurance_Blockchain-master\\Flight_Insurance_Blockchain-master\\contracts\\trainSuretyData.sol",
  "compiler": {
    "name": "solc",
    "version": "0.4.26+commit.4563c3fc.Emscripten.clang"
  },
  "schemaVersion": "3.0.1",
  "updatedAt": "2023-05-05T09:43:46.500Z",
  "devdoc": {
    "methods": {
      "authorizeCaller(address)": {
        "details": "Sets contract operations on/off    * When operational mode is disabled, all write transactions except for this one will fail"
      },
      "buy(address)": {
        "details": "Buy insurance for a train    "
      },
      "creditInsurees()": {
        "details": "Credits payouts to insurees"
      },
      "fund(address)": {
        "details": "Initial funding for the insurance. Unless there are too many delayed trains     resulting in insurance payouts, the contract should be self-sustaining    "
      },
      "isOperational()": {
        "details": "Get operating status of contract",
        "return": "A bool that is the current operating status"
      },
      "pay()": {
        "details": "Transfers eligible payout funds to insuree    "
      },
      "registerrailline(address,bool,string)": {
        "details": "Add an railline to the registration queue     Can only be called from trainSuretyApp contract    "
      }
    }
  },
  "userdoc": {
    "methods": {}
  }
}