{
  "contractName": "trainSuretyApp",
  "abi": [
    {
      "constant": true,
      "inputs": [],
      "name": "REGISTRATION_FEE",
      "outputs": [
        {
          "name": "",
          "type": "uint256"
        }
      ],
      "payable": false,
      "stateMutability": "view",
      "type": "function"
    },
    {
      "inputs": [
        {
          "name": "trainAddress",
          "type": "address"
        }
      ],
      "payable": false,
      "stateMutability": "nonpayable",
      "type": "constructor"
    },
    {
      "anonymous": false,
      "inputs": [
        {
          "indexed": false,
          "name": "railline",
          "type": "address"
        },
        {
          "indexed": false,
          "name": "train",
          "type": "string"
        },
        {
          "indexed": false,
          "name": "timestamp",
          "type": "uint256"
        },
        {
          "indexed": false,
          "name": "status",
          "type": "uint8"
        }
      ],
      "name": "trainStatusInfo",
      "type": "event"
    },
    {
      "anonymous": false,
      "inputs": [
        {
          "indexed": false,
          "name": "railline",
          "type": "address"
        },
        {
          "indexed": false,
          "name": "train",
          "type": "string"
        },
        {
          "indexed": false,
          "name": "timestamp",
          "type": "uint256"
        },
        {
          "indexed": false,
          "name": "status",
          "type": "uint8"
        }
      ],
      "name": "OracleReport",
      "type": "event"
    },
    {
      "anonymous": false,
      "inputs": [
        {
          "indexed": false,
          "name": "index",
          "type": "uint8"
        },
        {
          "indexed": false,
          "name": "railline",
          "type": "address"
        },
        {
          "indexed": false,
          "name": "train",
          "type": "string"
        },
        {
          "indexed": false,
          "name": "timestamp",
          "type": "uint256"
        }
      ],
      "name": "OracleRequest",
      "type": "event"
    },
    {
      "anonymous": false,
      "inputs": [
        {
          "indexed": false,
          "name": "change",
          "type": "bool"
        }
      ],
      "name": "OperationalChange",
      "type": "event"
    },
    {
      "anonymous": false,
      "inputs": [
        {
          "indexed": false,
          "name": "threshold",
          "type": "bool"
        },
        {
          "indexed": false,
          "name": "votes",
          "type": "uint256"
        }
      ],
      "name": "Registeredrailline",
      "type": "event"
    },
    {
      "anonymous": false,
      "inputs": [
        {
          "indexed": false,
          "name": "trainNumber",
          "type": "bytes32"
        },
        {
          "indexed": false,
          "name": "date",
          "type": "uint256"
        }
      ],
      "name": "Registeredtrain",
      "type": "event"
    },
    {
      "constant": true,
      "inputs": [],
      "name": "isOperationalApp",
      "outputs": [
        {
          "name": "",
          "type": "bool"
        }
      ],
      "payable": false,
      "stateMutability": "view",
      "type": "function"
    },
    {
      "constant": false,
      "inputs": [
        {
          "name": "mode",
          "type": "bool"
        }
      ],
      "name": "setOperationalApp",
      "outputs": [
        {
          "name": "",
          "type": "bool"
        }
      ],
      "payable": false,
      "stateMutability": "nonpayable",
      "type": "function"
    },
    {
      "constant": true,
      "inputs": [],
      "name": "isOperationalData",
      "outputs": [
        {
          "name": "",
          "type": "bool"
        }
      ],
      "payable": false,
      "stateMutability": "view",
      "type": "function"
    },
    {
      "constant": false,
      "inputs": [
        {
          "name": "mode",
          "type": "bool"
        }
      ],
      "name": "setOperationalData",
      "outputs": [
        {
          "name": "",
          "type": "bool"
        }
      ],
      "payable": false,
      "stateMutability": "nonpayable",
      "type": "function"
    },
    {
      "constant": true,
      "inputs": [],
      "name": "getRegisteredraillinesArray",
      "outputs": [
        {
          "name": "",
          "type": "address[]"
        }
      ],
      "payable": false,
      "stateMutability": "view",
      "type": "function"
    },
    {
      "constant": true,
      "inputs": [
        {
          "name": "trainCode",
          "type": "bytes32"
        }
      ],
      "name": "gettrainNumberFromData",
      "outputs": [
        {
          "name": "arrivalT",
          "type": "uint256"
        },
        {
          "name": "status",
          "type": "uint256"
        },
        {
          "name": "totalIndividualInsuredAmount",
          "type": "uint256"
        },
        {
          "name": "individualtrainInsurees",
          "type": "uint256"
        },
        {
          "name": "raillineCompanyAddress",
          "type": "address"
        }
      ],
      "payable": false,
      "stateMutability": "view",
      "type": "function"
    },
    {
      "constant": false,
      "inputs": [
        {
          "name": "trainCode",
          "type": "bytes32"
        },
        {
          "name": "raillineAddress",
          "type": "address"
        },
        {
          "name": "amountBought",
          "type": "uint256"
        }
      ],
      "name": "buyInsurance",
      "outputs": [],
      "payable": true,
      "stateMutability": "payable",
      "type": "function"
    },
    {
      "constant": false,
      "inputs": [
        {
          "name": "raillineToRegister",
          "type": "address"
        },
        {
          "name": "raillineName",
          "type": "string"
        }
      ],
      "name": "registerrailline",
      "outputs": [],
      "payable": false,
      "stateMutability": "nonpayable",
      "type": "function"
    },
    {
      "constant": false,
      "inputs": [
        {
          "name": "trainNumber",
          "type": "bytes32"
        },
        {
          "name": "date",
          "type": "uint256"
        },
        {
          "name": "trainStatus",
          "type": "uint256"
        },
        {
          "name": "maxIndividualInsuredAmount",
          "type": "uint256"
        },
        {
          "name": "maxTotalInsuredAmount",
          "type": "uint256"
        }
      ],
      "name": "registertrain",
      "outputs": [],
      "payable": false,
      "stateMutability": "nonpayable",
      "type": "function"
    },
    {
      "constant": false,
      "inputs": [
        {
          "name": "votingFor",
          "type": "address"
        }
      ],
      "name": "voterailline",
      "outputs": [],
      "payable": false,
      "stateMutability": "nonpayable",
      "type": "function"
    },
    {
      "constant": false,
      "inputs": [
        {
          "name": "_address",
          "type": "address"
        }
      ],
      "name": "fundrailline",
      "outputs": [],
      "payable": true,
      "stateMutability": "payable",
      "type": "function"
    },
    {
      "constant": false,
      "inputs": [
        {
          "name": "railline",
          "type": "address"
        },
        {
          "name": "train",
          "type": "string"
        },
        {
          "name": "timestamp",
          "type": "uint256"
        }
      ],
      "name": "fetchtrainStatus",
      "outputs": [],
      "payable": false,
      "stateMutability": "nonpayable",
      "type": "function"
    },
    {
      "constant": false,
      "inputs": [],
      "name": "registerOracle",
      "outputs": [],
      "payable": true,
      "stateMutability": "payable",
      "type": "function"
    },
    {
      "constant": true,
      "inputs": [],
      "name": "getMyIndexes",
      "outputs": [
        {
          "name": "",
          "type": "uint8[3]"
        }
      ],
      "payable": false,
      "stateMutability": "view",
      "type": "function"
    },
    {
      "constant": false,
      "inputs": [
        {
          "name": "index",
          "type": "uint8"
        },
        {
          "name": "railline",
          "type": "address"
        },
        {
          "name": "train",
          "type": "string"
        },
        {
          "name": "timestamp",
          "type": "uint256"
        },
        {
          "name": "statusCode",
          "type": "uint8"
        }
      ],
      "name": "submitOracleResponse",
      "outputs": [],
      "payable": false,
      "stateMutability": "nonpayable",
      "type": "function"
    }
  ],
  "bytecode": "0x60806040526001600060146101000a81548160ff0219169083151502179055506000600260146101000a81548160ff021916908360ff1602179055503480156200004857600080fd5b5060405160208062005db183398101806040528101908080519060200190929190505050336000806101000a81548173ffffffffffffffffffffffffffffffffffffffff021916908373ffffffffffffffffffffffffffffffffffffffff16021790555080620000b762000152565b808273ffffffffffffffffffffffffffffffffffffffff1673ffffffffffffffffffffffffffffffffffffffff168152602001915050604051809103906000f0801580156200010a573d6000803e3d6000fd5b50600260006101000a81548173ffffffffffffffffffffffffffffffffffffffff021916908373ffffffffffffffffffffffffffffffffffffffff1602179055505062000163565b6040516123aa8062003a0783390190565b61389480620001736000396000f3006080604052600436106100e6576000357c0100000000000000000000000000000000000000000000000000000000900463ffffffff168063070477b2146100eb57806308e03567146101325780631347ebd61461019e57806331cf338f146101cd578063339d2590146102145780634cacdefb1461021e57806350e7882a146102545780635f1cc0e6146102af57806364b4f751146103025780637687c5e31461032d5780638e11e81a1461035c5780639def22f3146103c1578063a3b279ab14610404578063a4276b5f14610452578063c10f2700146104df578063da00cee81461055e575b600080fd5b3480156100f757600080fd5b506101186004803603810190808035151590602001909291905050506105b7565b604051808215151515815260200191505060405180910390f35b34801561013e57600080fd5b5061014761076a565b6040518080602001828103825283818151815260200191508051906020019060200280838360005b8381101561018a57808201518184015260208101905061016f565b505050509050019250505060405180910390f35b3480156101aa57600080fd5b506101b3610932565b604051808215151515815260200191505060405180910390f35b3480156101d957600080fd5b506101fa600480360381019080803515159060200190929190505050610948565b604051808215151515815260200191505060405180910390f35b61021c610a68565b005b610252600480360381019080803573ffffffffffffffffffffffffffffffffffffffff169060200190929190505050610b90565b005b34801561026057600080fd5b506102ad600480360381019080803573ffffffffffffffffffffffffffffffffffffffff169060200190929190803590602001908201803590602001919091929391929390505050610f4a565b005b3480156102bb57600080fd5b506102c4611613565b6040518082600360200280838360005b838110156102ef5780820151818401526020810190506102d4565b5050505090500191505060405180910390f35b34801561030e57600080fd5b50610317611788565b6040518082815260200191505060405180910390f35b34801561033957600080fd5b50610342611794565b604051808215151515815260200191505060405180910390f35b34801561036857600080fd5b506103bf600480360381019080803573ffffffffffffffffffffffffffffffffffffffff1690602001909291908035906020019082018035906020019190919293919293908035906020019092919050505061185c565b005b3480156103cd57600080fd5b50610402600480360381019080803573ffffffffffffffffffffffffffffffffffffffff169060200190929190505050611ac6565b005b6104506004803603810190808035600019169060200190929190803573ffffffffffffffffffffffffffffffffffffffff16906020019092919080359060200190929190505050612336565b005b34801561045e57600080fd5b50610481600480360381019080803560001916906020019092919050505061270c565b604051808681526020018581526020018481526020018381526020018273ffffffffffffffffffffffffffffffffffffffff1673ffffffffffffffffffffffffffffffffffffffff1681526020019550505050505060405180910390f35b3480156104eb57600080fd5b5061055c600480360381019080803560ff169060200190929190803573ffffffffffffffffffffffffffffffffffffffff16906020019092919080359060200190820180359060200191909192939192939080359060200190929190803560ff1690602001909291905050506128c8565b005b34801561056a57600080fd5b506105b5600480360381019080803560001916906020019092919080359060200190929190803590602001909291908035906020019092919080359060200190929190505050612ebd565b005b60008060009054906101000a900473ffffffffffffffffffffffffffffffffffffffff1673ffffffffffffffffffffffffffffffffffffffff163373ffffffffffffffffffffffffffffffffffffffff1614151561067d576040517f08c379a000000000000000000000000000000000000000000000000000000000815260040180806020018281038252601c8152602001807f43616c6c6572206973206e6f7420636f6e7472616374206f776e65720000000081525060200191505060405180910390fd5b600260009054906101000a900473ffffffffffffffffffffffffffffffffffffffff1673ffffffffffffffffffffffffffffffffffffffff1663110466ed836040518263ffffffff167c01000000000000000000000000000000000000000000000000000000000281526004018082151515158152602001915050600060405180830381600087803b15801561071257600080fd5b505af1158015610726573d6000803e3d6000fd5b505050507f36e35b5cbb5748103df55ed5351bd62fef2c1d93761dd69c91b21e5c6862490382604051808215151515815260200191505060405180910390a1919050565b6060600060149054906101000a900460ff161515610816576040517f08c379a00000000000000000000000000000000000000000000000000000000081526004018080602001828103825260258152602001807f436f6e74726163742069732063757272656e746c79206e6f74206f706572617481526020017f696f6e616c00000000000000000000000000000000000000000000000000000081525060400191505060405180910390fd5b600260009054906101000a900473ffffffffffffffffffffffffffffffffffffffff1673ffffffffffffffffffffffffffffffffffffffff16638777b36a6040518163ffffffff167c0100000000000000000000000000000000000000000000000000000000028152600401600060405180830381600087803b15801561089c57600080fd5b505af11580156108b0573d6000803e3d6000fd5b505050506040513d6000823e3d601f19601f8201168201806040525060208110156108da57600080fd5b8101908080516401000000008111156108f257600080fd5b8281019050602081018481111561090857600080fd5b815185602082028301116401000000008211171561092557600080fd5b5050929190505050905090565b60008060149054906101000a900460ff16905090565b60008060009054906101000a900473ffffffffffffffffffffffffffffffffffffffff1673ffffffffffffffffffffffffffffffffffffffff163373ffffffffffffffffffffffffffffffffffffffff16141515610a0e576040517f08c379a000000000000000000000000000000000000000000000000000000000815260040180806020018281038252601c8152602001807f43616c6c6572206973206e6f7420636f6e7472616374206f776e65720000000081525060200191505060405180910390fd5b81600060146101000a81548160ff0219169083151502179055507f36e35b5cbb5748103df55ed5351bd62fef2c1d93761dd69c91b21e5c6862490382604051808215151515815260200191505060405180910390a1919050565b610a7061377b565b670de0b6b3a76400003410151515610af0576040517f08c379a000000000000000000000000000000000000000000000000000000000815260040180806020018281038252601c8152602001807f526567697374726174696f6e206665652069732072657175697265640000000081525060200191505060405180910390fd5b610af933613457565b9050604080519081016040528060011515815260200182815250600360003373ffffffffffffffffffffffffffffffffffffffff1673ffffffffffffffffffffffffffffffffffffffff16815260200190815260200160002060008201518160000160006101000a81548160ff021916908315150217905550602082015181600101906003610b8992919061379e565b5090505050565b600060149054906101000a900460ff161515610c3a576040517f08c379a00000000000000000000000000000000000000000000000000000000081526004018080602001828103825260258152602001807f436f6e74726163742069732063757272656e746c79206e6f74206f706572617481526020017f696f6e616c00000000000000000000000000000000000000000000000000000081525060400191505060405180910390fd5b80600260009054906101000a900473ffffffffffffffffffffffffffffffffffffffff1673ffffffffffffffffffffffffffffffffffffffff166344962217826040518263ffffffff167c0100000000000000000000000000000000000000000000000000000000028152600401808273ffffffffffffffffffffffffffffffffffffffff1673ffffffffffffffffffffffffffffffffffffffff168152602001915050602060405180830381600087803b158015610cf857600080fd5b505af1158015610d0c573d6000803e3d6000fd5b505050506040513d6020811015610d2257600080fd5b81019080805190602001909291905050501515610dcd576040517f08c379a000000000000000000000000000000000000000000000000000000000815260040180806020018281038252602f8152602001807f4164647265737320646f65736e27742062656c6f6e67207769746820616e206581526020017f78697374696e67207261696c776179000000000000000000000000000000000081525060400191505060405180910390fd5b8173ffffffffffffffffffffffffffffffffffffffff163373ffffffffffffffffffffffffffffffffffffffff16141515610e70576040517f08c379a00000000000000000000000000000000000000000000000000000000081526004018080602001828103825260208152602001807f4f6e6c7920746865207261696c7761792063616e2066756e6420697473656c6681525060200191505060405180910390fd5b600260009054906101000a900473ffffffffffffffffffffffffffffffffffffffff1673ffffffffffffffffffffffffffffffffffffffff16632302440834846040518363ffffffff167c0100000000000000000000000000000000000000000000000000000000028152600401808273ffffffffffffffffffffffffffffffffffffffff1673ffffffffffffffffffffffffffffffffffffffff1681526020019150506000604051808303818588803b158015610f2d57600080fd5b505af1158015610f41573d6000803e3d6000fd5b50505050505050565b600080600060149054906101000a900460ff161515610ff7576040517f08c379a00000000000000000000000000000000000000000000000000000000081526004018080602001828103825260258152602001807f436f6e74726163742069732063757272656e746c79206e6f74206f706572617481526020017f696f6e616c00000000000000000000000000000000000000000000000000000081525060400191505060405180910390fd5b600260009054906101000a900473ffffffffffffffffffffffffffffffffffffffff1673ffffffffffffffffffffffffffffffffffffffff16638ba1cfda6040518163ffffffff167c0100000000000000000000000000000000000000000000000000000000028152600401602060405180830381600087803b15801561107d57600080fd5b505af1158015611091573d6000803e3d6000fd5b505050506040513d60208110156110a757600080fd5b81019080805190602001909291905050509150600260009054906101000a900473ffffffffffffffffffffffffffffffffffffffff1673ffffffffffffffffffffffffffffffffffffffff1663dd753015866040518263ffffffff167c0100000000000000000000000000000000000000000000000000000000028152600401808273ffffffffffffffffffffffffffffffffffffffff1673ffffffffffffffffffffffffffffffffffffffff168152602001915050602060405180830381600087803b15801561117757600080fd5b505af115801561118b573d6000803e3d6000fd5b505050506040513d60208110156111a157600080fd5b81019080805190602001909291905050509050600260009054906101000a900473ffffffffffffffffffffffffffffffffffffffff1673ffffffffffffffffffffffffffffffffffffffff1663577d71be336040518263ffffffff167c0100000000000000000000000000000000000000000000000000000000028152600401808273ffffffffffffffffffffffffffffffffffffffff1673ffffffffffffffffffffffffffffffffffffffff168152602001915050602060405180830381600087803b15801561127157600080fd5b505af1158015611285573d6000803e3d6000fd5b505050506040513d602081101561129b57600080fd5b8101908080519060200190929190505050151561136c576040517f08c379a000000000000000000000000000000000000000000000000000000000815260040180806020018281038252604e8152602001807f546865207261696c7761792063757272656e746c7920617474656d7074696e6781526020017f20746f20726567697374657220616e6f74686572207261696c7761792069732081526020017f6e6f74207265676973746572656400000000000000000000000000000000000081525060600191505060405180910390fd5b6004821015156114c357600260009054906101000a900473ffffffffffffffffffffffffffffffffffffffff1673ffffffffffffffffffffffffffffffffffffffff1663ac49d8a186600087876040518563ffffffff167c0100000000000000000000000000000000000000000000000000000000028152600401808573ffffffffffffffffffffffffffffffffffffffff1673ffffffffffffffffffffffffffffffffffffffff16815260200184151515158152602001806020018281038252848482818152602001925080828437820191505095505050505050600060405180830381600087803b15801561146257600080fd5b505af1158015611476573d6000803e3d6000fd5b505050507feba16bccda008dfdecdab2d9296c831cb4adcb994d80399878c4e613cc2b530a60018260405180831515151581526020018281526020019250505060405180910390a161160c565b600260009054906101000a900473ffffffffffffffffffffffffffffffffffffffff1673ffffffffffffffffffffffffffffffffffffffff1663ac49d8a186600187876040518563ffffffff167c0100000000000000000000000000000000000000000000000000000000028152600401808573ffffffffffffffffffffffffffffffffffffffff1673ffffffffffffffffffffffffffffffffffffffff16815260200184151515158152602001806020018281038252848482818152602001925080828437820191505095505050505050600060405180830381600087803b1580156115af57600080fd5b505af11580156115c3573d6000803e3d6000fd5b505050507feba16bccda008dfdecdab2d9296c831cb4adcb994d80399878c4e613cc2b530a60018260405180831515151581526020018281526020019250505060405180910390a15b5050505050565b61161b61377b565b600360003373ffffffffffffffffffffffffffffffffffffffff1673ffffffffffffffffffffffffffffffffffffffff16815260200190815260200160002060000160009054906101000a900460ff1615156116df576040517f08c379a000000000000000000000000000000000000000000000000000000000815260040180806020018281038252601b8152602001807f4e6f74207265676973746572656420617320616e206f7261636c65000000000081525060200191505060405180910390fd5b600360003373ffffffffffffffffffffffffffffffffffffffff1673ffffffffffffffffffffffffffffffffffffffff16815260200190815260200160002060010160038060200260405190810160405280929190826003801561177e576020028201916000905b82829054906101000a900460ff1660ff16815260200190600101906020826000010492830192600103820291508084116117475790505b5050505050905090565b670de0b6b3a764000081565b6000600260009054906101000a900473ffffffffffffffffffffffffffffffffffffffff1673ffffffffffffffffffffffffffffffffffffffff1663cd905dff6040518163ffffffff167c0100000000000000000000000000000000000000000000000000000000028152600401602060405180830381600087803b15801561181c57600080fd5b505af1158015611830573d6000803e3d6000fd5b505050506040513d602081101561184657600080fd5b8101908080519060200190929190505050905090565b600080611868336135fd565b91508186868686604051602001808660ff1660ff167f01000000000000000000000000000000000000000000000000000000000000000281526001018573ffffffffffffffffffffffffffffffffffffffff1673ffffffffffffffffffffffffffffffffffffffff166c010000000000000000000000000281526014018484808284378201915050828152602001955050505050506040516020818303038152906040526040518082805190602001908083835b602083101515611941578051825260208201915060208101905060208303925061191c565b6001836020036101000a0380198251168184511680821785525050505050509050019150506040518091039020905060408051908101604052803373ffffffffffffffffffffffffffffffffffffffff1681526020016001151581525060046000836000191660001916815260200190815260200160002060008201518160000160006101000a81548173ffffffffffffffffffffffffffffffffffffffff021916908373ffffffffffffffffffffffffffffffffffffffff16021790555060208201518160000160146101000a81548160ff0219169083151502179055509050507f3ed01f2c3fc24c6b329d931e35b03e390d23497d22b3f90e15b600343e93df118287878787604051808660ff1660ff1681526020018573ffffffffffffffffffffffffffffffffffffffff1673ffffffffffffffffffffffffffffffffffffffff1681526020018060200183815260200182810382528585828181526020019250808284378201915050965050505050505060405180910390a1505050505050565b60008060008060149054906101000a900460ff161515611b74576040517f08c379a00000000000000000000000000000000000000000000000000000000081526004018080602001828103825260258152602001807f436f6e74726163742069732063757272656e746c79206e6f74206f706572617481526020017f696f6e616c00000000000000000000000000000000000000000000000000000081525060400191505060405180910390fd5b33600260009054906101000a900473ffffffffffffffffffffffffffffffffffffffff1673ffffffffffffffffffffffffffffffffffffffff16635689b249826040518263ffffffff167c0100000000000000000000000000000000000000000000000000000000028152600401808273ffffffffffffffffffffffffffffffffffffffff1673ffffffffffffffffffffffffffffffffffffffff168152602001915050602060405180830381600087803b158015611c3257600080fd5b505af1158015611c46573d6000803e3d6000fd5b505050506040513d6020811015611c5c57600080fd5b81019080805190602001909291905050501515611ce1576040517f08c379a00000000000000000000000000000000000000000000000000000000081526004018080602001828103825260158152602001807f7261696c776179206973206e6f742066756e646564000000000000000000000081525060200191505060405180910390fd5b84600260009054906101000a900473ffffffffffffffffffffffffffffffffffffffff1673ffffffffffffffffffffffffffffffffffffffff166344962217826040518263ffffffff167c0100000000000000000000000000000000000000000000000000000000028152600401808273ffffffffffffffffffffffffffffffffffffffff1673ffffffffffffffffffffffffffffffffffffffff168152602001915050602060405180830381600087803b158015611d9f57600080fd5b505af1158015611db3573d6000803e3d6000fd5b505050506040513d6020811015611dc957600080fd5b81019080805190602001909291905050501515611e74576040517f08c379a000000000000000000000000000000000000000000000000000000000815260040180806020018281038252602f8152602001807f4164647265737320646f65736e27742062656c6f6e67207769746820616e206581526020017f78697374696e67207261696c776179000000000000000000000000000000000081525060400191505060405180910390fd5b600260009054906101000a900473ffffffffffffffffffffffffffffffffffffffff1673ffffffffffffffffffffffffffffffffffffffff16631afa74e533886040518363ffffffff167c0100000000000000000000000000000000000000000000000000000000028152600401808373ffffffffffffffffffffffffffffffffffffffff1673ffffffffffffffffffffffffffffffffffffffff1681526020018273ffffffffffffffffffffffffffffffffffffffff1673ffffffffffffffffffffffffffffffffffffffff16815260200192505050600060405180830381600087803b158015611f6557600080fd5b505af1158015611f79573d6000803e3d6000fd5b50505050600260009054906101000a900473ffffffffffffffffffffffffffffffffffffffff1673ffffffffffffffffffffffffffffffffffffffff1663577d71be876040518263ffffffff167c0100000000000000000000000000000000000000000000000000000000028152600401808273ffffffffffffffffffffffffffffffffffffffff1673ffffffffffffffffffffffffffffffffffffffff168152602001915050602060405180830381600087803b15801561203a57600080fd5b505af115801561204e573d6000803e3d6000fd5b505050506040513d602081101561206457600080fd5b81019080805190602001909291905050509450600260009054906101000a900473ffffffffffffffffffffffffffffffffffffffff1673ffffffffffffffffffffffffffffffffffffffff1663dd753015876040518263ffffffff167c0100000000000000000000000000000000000000000000000000000000028152600401808273ffffffffffffffffffffffffffffffffffffffff1673ffffffffffffffffffffffffffffffffffffffff168152602001915050602060405180830381600087803b15801561213457600080fd5b505af1158015612148573d6000803e3d6000fd5b505050506040513d602081101561215e57600080fd5b8101908080519060200190929190505050935061224460028060009054906101000a900473ffffffffffffffffffffffffffffffffffffffff1673ffffffffffffffffffffffffffffffffffffffff16638ba1cfda6040518163ffffffff167c0100000000000000000000000000000000000000000000000000000000028152600401602060405180830381600087803b1580156121fb57600080fd5b505af115801561220f573d6000803e3d6000fd5b505050506040513d602081101561222557600080fd5b810190808051906020019092919050505061375f90919063ffffffff16565b92508284118015612253575084155b1561232e57600260009054906101000a900473ffffffffffffffffffffffffffffffffffffffff1673ffffffffffffffffffffffffffffffffffffffff166397b7ecdf876040518263ffffffff167c0100000000000000000000000000000000000000000000000000000000028152600401808273ffffffffffffffffffffffffffffffffffffffff1673ffffffffffffffffffffffffffffffffffffffff168152602001915050600060405180830381600087803b15801561231557600080fd5b505af1158015612329573d6000803e3d6000fd5b505050505b505050505050565b600060149054906101000a900460ff1615156123e0576040517f08c379a00000000000000000000000000000000000000000000000000000000081526004018080602001828103825260258152602001807f436f6e74726163742069732063757272656e746c79206e6f74206f706572617481526020017f696f6e616c00000000000000000000000000000000000000000000000000000081525060400191505060405180910390fd5b81600260009054906101000a900473ffffffffffffffffffffffffffffffffffffffff1673ffffffffffffffffffffffffffffffffffffffff166344962217826040518263ffffffff167c0100000000000000000000000000000000000000000000000000000000028152600401808273ffffffffffffffffffffffffffffffffffffffff1673ffffffffffffffffffffffffffffffffffffffff168152602001915050602060405180830381600087803b15801561249e57600080fd5b505af11580156124b2573d6000803e3d6000fd5b505050506040513d60208110156124c857600080fd5b81019080805190602001909291905050501515612573576040517f08c379a000000000000000000000000000000000000000000000000000000000815260040180806020018281038252602f8152602001807f4164647265737320646f65736e27742062656c6f6e67207769746820616e206581526020017f78697374696e67207261696c776179000000000000000000000000000000000081525060400191505060405180910390fd5b8160016000866000191660001916815260200190815260200160002060050160003373ffffffffffffffffffffffffffffffffffffffff1673ffffffffffffffffffffffffffffffffffffffff168152602001908152602001600020540160016000866000191660001916815260200190815260200160002060050160003373ffffffffffffffffffffffffffffffffffffffff1673ffffffffffffffffffffffffffffffffffffffff16815260200190815260200160002081905550600260009054906101000a900473ffffffffffffffffffffffffffffffffffffffff1673ffffffffffffffffffffffffffffffffffffffff1663f088d54734856040518363ffffffff167c0100000000000000000000000000000000000000000000000000000000028152600401808273ffffffffffffffffffffffffffffffffffffffff1673ffffffffffffffffffffffffffffffffffffffff1681526020019150506000604051808303818588803b1580156126ed57600080fd5b505af1158015612701573d6000803e3d6000fd5b505050505050505050565b60008060008060008060149054906101000a900460ff1615156127bd576040517f08c379a00000000000000000000000000000000000000000000000000000000081526004018080602001828103825260258152602001807f436f6e74726163742069732063757272656e746c79206e6f74206f706572617481526020017f696f6e616c00000000000000000000000000000000000000000000000000000081525060400191505060405180910390fd5b600160008760001916600019168152602001908152602001600020600101546001600088600019166000191681526020019081526020016000206002015460016000896000191660001916815260200190815260200160002060030154600160008a6000191660001916815260200190815260200160002060050160003373ffffffffffffffffffffffffffffffffffffffff1673ffffffffffffffffffffffffffffffffffffffff16815260200190815260200160002054600160008b6000191660001916815260200190815260200160002060000160009054906101000a900473ffffffffffffffffffffffffffffffffffffffff169450945094509450945091939590929450565b6000868060ff16600360003373ffffffffffffffffffffffffffffffffffffffff1673ffffffffffffffffffffffffffffffffffffffff168152602001908152602001600020600101600060038110151561291f57fe5b602091828204019190069054906101000a900460ff1660ff1614806129ae57508060ff16600360003373ffffffffffffffffffffffffffffffffffffffff1673ffffffffffffffffffffffffffffffffffffffff168152602001908152602001600020600101600160038110151561299357fe5b602091828204019190069054906101000a900460ff1660ff16145b80612a2357508060ff16600360003373ffffffffffffffffffffffffffffffffffffffff1673ffffffffffffffffffffffffffffffffffffffff1681526020019081526020016000206001016002600381101515612a0857fe5b602091828204019190069054906101000a900460ff1660ff16145b1515612abd576040517f08c379a00000000000000000000000000000000000000000000000000000000081526004018080602001828103825260238152602001807f496e64657820646f6573206e6f74206d61746368206f7261636c65207265717581526020017f657374000000000000000000000000000000000000000000000000000000000081525060400191505060405180910390fd5b8787878787604051602001808660ff1660ff167f01000000000000000000000000000000000000000000000000000000000000000281526001018573ffffffffffffffffffffffffffffffffffffffff1673ffffffffffffffffffffffffffffffffffffffff166c010000000000000000000000000281526014018484808284378201915050828152602001955050505050506040516020818303038152906040526040518082805190602001908083835b602083101515612b945780518252602082019150602081019050602083039250612b6f565b6001836020036101000a0380198251168184511680821785525050505050509050019150506040518091039020915060046000836000191660001916815260200190815260200160002060000160149054906101000a900460ff161515612c63576040517f08c379a000000000000000000000000000000000000000000000000000000000815260040180806020018281038252601f8152602001807f4f7261636c65207265717565737420616c7265616479207265736f6c7665640081525060200191505060405180910390fd5b60046000836000191660001916815260200190815260200160002060010160008460ff1660ff1681526020019081526020016000203390806001815401808255809150509060018203906000526020600020016000909192909190916101000a81548173ffffffffffffffffffffffffffffffffffffffff021916908373ffffffffffffffffffffffffffffffffffffffff160217905550507f43c853095c2752648493c88b4baac4d580d2594ffb00c6f1d4242d844514f7838787878787604051808673ffffffffffffffffffffffffffffffffffffffff1673ffffffffffffffffffffffffffffffffffffffff168152602001806020018481526020018360ff1660ff16815260200182810382528686828181526020019250808284378201915050965050505050505060405180910390a1600360046000846000191660001916815260200190815260200160002060010160008560ff1660ff16815260200190815260200160002080549050101515612eb3577f48c0e8b89867f0dcaf7e0482f81f91adfd81bc40126a4169942d7c883d959a9f8787878787604051808673ffffffffffffffffffffffffffffffffffffffff1673ffffffffffffffffffffffffffffffffffffffff168152602001806020018481526020018360ff1660ff16815260200182810382528686828181526020019250808284378201915050965050505050505060405180910390a1612eb28787878080601f0160208091040260200160405190810160405280939291908181526020018383808284378201915050505050508686613775565b5b5050505050505050565b33600260009054906101000a900473ffffffffffffffffffffffffffffffffffffffff1673ffffffffffffffffffffffffffffffffffffffff166344962217826040518263ffffffff167c0100000000000000000000000000000000000000000000000000000000028152600401808273ffffffffffffffffffffffffffffffffffffffff1673ffffffffffffffffffffffffffffffffffffffff168152602001915050602060405180830381600087803b158015612f7b57600080fd5b505af1158015612f8f573d6000803e3d6000fd5b505050506040513d6020811015612fa557600080fd5b81019080805190602001909291905050501515613050576040517f08c379a000000000000000000000000000000000000000000000000000000000815260040180806020018281038252602f8152602001807f4164647265737320646f65736e27742062656c6f6e67207769746820616e206581526020017f78697374696e67207261696c776179000000000000000000000000000000000081525060400191505060405180910390fd5b600060149054906101000a900460ff1615156130fa576040517f08c379a00000000000000000000000000000000000000000000000000000000081526004018080602001828103825260258152602001807f436f6e74726163742069732063757272656e746c79206e6f74206f706572617481526020017f696f6e616c00000000000000000000000000000000000000000000000000000081525060400191505060405180910390fd5b600260009054906101000a900473ffffffffffffffffffffffffffffffffffffffff1673ffffffffffffffffffffffffffffffffffffffff1663577d71be336040518263ffffffff167c0100000000000000000000000000000000000000000000000000000000028152600401808273ffffffffffffffffffffffffffffffffffffffff1673ffffffffffffffffffffffffffffffffffffffff168152602001915050602060405180830381600087803b1580156131b757600080fd5b505af11580156131cb573d6000803e3d6000fd5b505050506040513d60208110156131e157600080fd5b8101908080519060200190929190505050151561328c576040517f08c379a00000000000000000000000000000000000000000000000000000000081526004018080602001828103825260358152602001807f546869732061646472657373206973206e6f7420726567697374657265642c2081526020017f69742063616e206e6f74206c6f6720747261696e73000000000000000000000081525060400191505060405180910390fd5b60a0604051908101604052803373ffffffffffffffffffffffffffffffffffffffff1681526020018681526020018581526020018481526020018381525060016000886000191660001916815260200190815260200160002060008201518160000160006101000a81548173ffffffffffffffffffffffffffffffffffffffff021916908373ffffffffffffffffffffffffffffffffffffffff16021790555060208201518160010155604082015181600201556060820151816003015560808201518160040155905050600260009054906101000a900473ffffffffffffffffffffffffffffffffffffffff1673ffffffffffffffffffffffffffffffffffffffff166393d3a6fd876040518263ffffffff167c0100000000000000000000000000000000000000000000000000000000028152600401808260001916600019168152602001915050600060405180830381600087803b1580156133f057600080fd5b505af1158015613404573d6000803e3d6000fd5b505050507fe9afcb078b59ab189a3ecfbd39d899a44cdbc1025ac63f4aeacc9f126746f33486866040518083600019166000191681526020018281526020019250505060405180910390a1505050505050565b61345f61377b565b61346761377b565b613470836135fd565b81600060038110151561347f57fe5b602002019060ff16908160ff168152505080600060038110151561349f57fe5b60200201518160016003811015156134b357fe5b602002019060ff16908160ff16815250505b8060006003811015156134d457fe5b602002015160ff168160016003811015156134eb57fe5b602002015160ff16141561352757613502836135fd565b81600160038110151561351157fe5b602002019060ff16908160ff16815250506134c5565b80600160038110151561353657fe5b602002015181600260038110151561354a57fe5b602002019060ff16908160ff16815250505b80600060038110151561356b57fe5b602002015160ff1681600260038110151561358257fe5b602002015160ff1614806135c157508060016003811015156135a057fe5b602002015160ff168160026003811015156135b757fe5b602002015160ff16145b156135f4576135cf836135fd565b8160026003811015156135de57fe5b602002019060ff16908160ff168152505061355c565b80915050919050565b6000806000600a91508160ff166002601481819054906101000a900460ff168092919060010191906101000a81548160ff021916908360ff16021790555060ff16430340856040516020018083600019166000191681526020018273ffffffffffffffffffffffffffffffffffffffff1673ffffffffffffffffffffffffffffffffffffffff166c01000000000000000000000000028152601401925050506040516020818303038152906040526040518082805190602001908083835b6020831015156136e057805182526020820191506020810190506020830392506136bb565b6001836020036101000a03801982511681845116808217855250505050505090500191505060405180910390206001900481151561371a57fe5b06905060fa600260149054906101000a900460ff1660ff161115613755576000600260146101000a81548160ff021916908360ff1602179055505b8092505050919050565b6000818381151561376c57fe5b04905092915050565b50505050565b606060405190810160405280600390602082028038833980820191505090505090565b826003601f016020900481019282156138275791602002820160005b838211156137f857835183826101000a81548160ff021916908360ff16021790555092602001926001016020816000010492830192600103026137ba565b80156138255782816101000a81549060ff02191690556001016020816000010492830192600103026137f8565b505b5090506138349190613838565b5090565b61386591905b8082111561386157600081816101000a81549060ff02191690555060010161383e565b5090565b905600a165627a7a723058201b8a48234cf01a1163302d30289ead44977a063719df0898abddfc96e874a599002960806040526001600060146101000a81548160ff0219169083151502179055506000600455600060055560006006553480156200003b57600080fd5b50604051602080620023aa83398101806040528101908080519060200190929190505050336000806101000a81548173ffffffffffffffffffffffffffffffffffffffff021916908373ffffffffffffffffffffffffffffffffffffffff16021790555060e0604051908101604052806040805190810160405280600c81526020017f496e7374616e746961746f72000000000000000000000000000000000000000081525081526020016001151581526020016001151581526020016000151581526020016000604051908082528060200260200182016040528015620001325781602001602082028038833980820191505090505b508152602001602060405190810160405280600081525081526020016000815250600160008373ffffffffffffffffffffffffffffffffffffffff1673ffffffffffffffffffffffffffffffffffffffff1681526020019081526020016000206000820151816000019080519060200190620001b092919062000303565b5060208201518160010160006101000a81548160ff02191690831515021790555060408201518160010160016101000a81548160ff02191690831515021790555060608201518160010160026101000a81548160ff02191690831515021790555060808201518160020190805190602001906200022f9291906200038a565b5060a08201518160030160008201518160000155505060c0820151816005015590505060028190806001815401808255809150509060018203906000526020600020016000909192909190916101000a81548173ffffffffffffffffffffffffffffffffffffffff021916908373ffffffffffffffffffffffffffffffffffffffff16021790555050620002de6001600454620002e66401000000000262001e03179091906401000000009004565b505062000432565b60008183019050828110151515620002fa57fe5b80905092915050565b828054600181600116156101000203166002900490600052602060002090601f016020900481019282601f106200034657805160ff191683800117855562000377565b8280016001018555821562000377579182015b828111156200037657825182559160200191906001019062000359565b5b509050620003869190620003e2565b5090565b828054828255906000526020600020908101928215620003cf579160200282015b82811115620003ce578251829060001916905591602001919060010190620003ab565b5b509050620003de91906200040a565b5090565b6200040791905b8082111562000403576000816000905550600101620003e9565b5090565b90565b6200042f91905b808211156200042b57600081600090555060010162000411565b5090565b90565b611f6880620004426000396000f300608060405260043610610112576000357c0100000000000000000000000000000000000000000000000000000000900463ffffffff168063110466ed1461011d5780631afa74e51461014c5780631b9265b8146101af57806323024408146101c65780632c388d5d146101fc57806336cee4841461023f5780634364d7681461025657806344962217146102815780635689b249146102dc578063577d71be146103375780636caaff43146103925780638777b36a146103fe5780638ba1cfda1461046a57806393d3a6fd1461049557806397b7ecdf146104c6578063ac49d8a114610509578063cd905dff14610570578063dd7530151461059f578063f088d547146105f6578063fe9fbb801461062c575b61011b33610687565b005b34801561012957600080fd5b5061014a600480360381019080803515159060200190929190505050610aba565b005b34801561015857600080fd5b506101ad600480360381019080803573ffffffffffffffffffffffffffffffffffffffff169060200190929190803573ffffffffffffffffffffffffffffffffffffffff169060200190929190505050610bd6565b005b3480156101bb57600080fd5b506101c4610e78565b005b6101fa600480360381019080803573ffffffffffffffffffffffffffffffffffffffff169060200190929190505050610687565b005b34801561020857600080fd5b5061023d600480360381019080803573ffffffffffffffffffffffffffffffffffffffff169060200190929190505050610e7a565b005b34801561024b57600080fd5b506102546110a6565b005b34801561026257600080fd5b5061026b6110a8565b6040518082815260200191505060405180910390f35b34801561028d57600080fd5b506102c2600480360381019080803573ffffffffffffffffffffffffffffffffffffffff16906020019092919050505061115b565b604051808215151515815260200191505060405180910390f35b3480156102e857600080fd5b5061031d600480360381019080803573ffffffffffffffffffffffffffffffffffffffff1690602001909291905050506111b4565b604051808215151515815260200191505060405180910390f35b34801561034357600080fd5b50610378600480360381019080803573ffffffffffffffffffffffffffffffffffffffff16906020019092919050505061120d565b604051808215151515815260200191505060405180910390f35b34801561039e57600080fd5b506103a7611266565b6040518080602001828103825283818151815260200191508051906020019060200280838360005b838110156103ea5780820151818401526020810190506103cf565b505050509050019250505060405180910390f35b34801561040a57600080fd5b506104136113ac565b6040518080602001828103825283818151815260200191508051906020019060200280838360005b8381101561045657808201518184015260208101905061043b565b505050509050019250505060405180910390f35b34801561047657600080fd5b5061047f6114e4565b6040518082815260200191505060405180910390f35b3480156104a157600080fd5b506104c460048036038101908080356000191690602001909291905050506114ee565b005b3480156104d257600080fd5b50610507600480360381019080803573ffffffffffffffffffffffffffffffffffffffff169060200190929190505050611563565b005b34801561051557600080fd5b5061056e600480360381019080803573ffffffffffffffffffffffffffffffffffffffff169060200190929190803515159060200190929190803590602001908201803590602001919091929391929390505050611872565b005b34801561057c57600080fd5b50610585611b67565b604051808215151515815260200191505060405180910390f35b3480156105ab57600080fd5b506105e0600480360381019080803573ffffffffffffffffffffffffffffffffffffffff169060200190929190505050611b7d565b6040518082815260200191505060405180910390f35b61062a600480360381019080803573ffffffffffffffffffffffffffffffffffffffff169060200190929190505050611c75565b005b34801561063857600080fd5b5061066d600480360381019080803573ffffffffffffffffffffffffffffffffffffffff169060200190929190505050611dad565b604051808215151515815260200191505060405180910390f35b600060149054906101000a900460ff161515610731576040517f08c379a00000000000000000000000000000000000000000000000000000000081526004018080602001828103825260258152602001807f436f6e74726163742069732063757272656e746c79206e6f74206f706572617481526020017f696f6e616c00000000000000000000000000000000000000000000000000000081525060400191505060405180910390fd5b80600160008273ffffffffffffffffffffffffffffffffffffffff1673ffffffffffffffffffffffffffffffffffffffff16815260200190815260200160002060010160019054906101000a900460ff16151561081c576040517f08c379a00000000000000000000000000000000000000000000000000000000081526004018080602001828103825260358152602001807f7261696c776179206973206e6f74207265676973746572656420616e64206e6f81526020017f742070617274206f66207468652070726f6772616d000000000000000000000081525060400191505060405180910390fd5b678ac7230489e8000034101515156108c2576040517f08c379a000000000000000000000000000000000000000000000000000000000815260040180806020018281038252603d8152602001807f546865207261696c77617920646964206e6f742070617920746865206d696e6981526020017f6d756d20726571756972656d656e747320746f2062652066756e64656400000081525060400191505060405180910390fd5b60018060008473ffffffffffffffffffffffffffffffffffffffff1673ffffffffffffffffffffffffffffffffffffffff16815260200190815260200160002060010160026101000a81548160ff0219169083151502179055506109326001600554611e0390919063ffffffff16565b6005819055507f75115b2d0d260e06747a21d2d5fbec1d28d054ce1793d4fa479b358130d3145182600160008573ffffffffffffffffffffffffffffffffffffffff1673ffffffffffffffffffffffffffffffffffffffff16815260200190815260200160002060010160009054906101000a900460ff16600160008673ffffffffffffffffffffffffffffffffffffffff1673ffffffffffffffffffffffffffffffffffffffff16815260200190815260200160002060010160019054906101000a900460ff16600160008773ffffffffffffffffffffffffffffffffffffffff1673ffffffffffffffffffffffffffffffffffffffff16815260200190815260200160002060010160029054906101000a900460ff16600554604051808673ffffffffffffffffffffffffffffffffffffffff1673ffffffffffffffffffffffffffffffffffffffff1681526020018515151515815260200184151515158152602001831515151581526020018281526020019550505050505060405180910390a15050565b6000809054906101000a900473ffffffffffffffffffffffffffffffffffffffff1673ffffffffffffffffffffffffffffffffffffffff163373ffffffffffffffffffffffffffffffffffffffff16141515610b7e576040517f08c379a000000000000000000000000000000000000000000000000000000000815260040180806020018281038252601c8152602001807f43616c6c6572206973206e6f7420636f6e7472616374206f776e65720000000081525060200191505060405180910390fd5b80600060146101000a81548160ff0219169083151502179055507f36e35b5cbb5748103df55ed5351bd62fef2c1d93761dd69c91b21e5c6862490381604051808215151515815260200191505060405180910390a150565b600060149054906101000a900460ff161515610c80576040517f08c379a00000000000000000000000000000000000000000000000000000000081526004018080602001828103825260258152602001807f436f6e74726163742069732063757272656e746c79206e6f74206f706572617481526020017f696f6e616c00000000000000000000000000000000000000000000000000000081525060400191505060405180910390fd5b600160008373ffffffffffffffffffffffffffffffffffffffff1673ffffffffffffffffffffffffffffffffffffffff16815260200190815260200160002060030160010160008273ffffffffffffffffffffffffffffffffffffffff1673ffffffffffffffffffffffffffffffffffffffff16815260200190815260200160002060009054906101000a900460ff16151515610d85576040517f08c379a00000000000000000000000000000000000000000000000000000000081526004018080602001828103825260158152602001807f7261696c77617920616c726561647920766f746564000000000000000000000081525060200191505060405180910390fd5b60018060008473ffffffffffffffffffffffffffffffffffffffff1673ffffffffffffffffffffffffffffffffffffffff16815260200190815260200160002060030160010160008373ffffffffffffffffffffffffffffffffffffffff1673ffffffffffffffffffffffffffffffffffffffff16815260200190815260200160002060006101000a81548160ff021916908315150217905550600160008373ffffffffffffffffffffffffffffffffffffffff1673ffffffffffffffffffffffffffffffffffffffff168152602001908152602001600020600301600001600081548092919060010191905055505050565b565b6000809054906101000a900473ffffffffffffffffffffffffffffffffffffffff1673ffffffffffffffffffffffffffffffffffffffff163373ffffffffffffffffffffffffffffffffffffffff16141515610f3e576040517f08c379a000000000000000000000000000000000000000000000000000000000815260040180806020018281038252601c8152602001807f43616c6c6572206973206e6f7420636f6e7472616374206f776e65720000000081525060200191505060405180910390fd5b600060149054906101000a900460ff161515610fe8576040517f08c379a00000000000000000000000000000000000000000000000000000000081526004018080602001828103825260258152602001807f436f6e74726163742069732063757272656e746c79206e6f74206f706572617481526020017f696f6e616c00000000000000000000000000000000000000000000000000000081525060400191505060405180910390fd5b6001600360008373ffffffffffffffffffffffffffffffffffffffff1673ffffffffffffffffffffffffffffffffffffffff16815260200190815260200160002060006101000a81548160ff0219169083151502179055507fc4bcfb88e75b36f7b946fb0affb57e1f03fed8d0d5ddbe56b631d09c1188b28381604051808273ffffffffffffffffffffffffffffffffffffffff1673ffffffffffffffffffffffffffffffffffffffff16815260200191505060405180910390a150565b565b60008060149054906101000a900460ff161515611153576040517f08c379a00000000000000000000000000000000000000000000000000000000081526004018080602001828103825260258152602001807f436f6e74726163742069732063757272656e746c79206e6f74206f706572617481526020017f696f6e616c00000000000000000000000000000000000000000000000000000081525060400191505060405180910390fd5b600554905090565b6000600160008373ffffffffffffffffffffffffffffffffffffffff1673ffffffffffffffffffffffffffffffffffffffff16815260200190815260200160002060010160009054906101000a900460ff169050919050565b6000600160008373ffffffffffffffffffffffffffffffffffffffff1673ffffffffffffffffffffffffffffffffffffffff16815260200190815260200160002060010160029054906101000a900460ff169050919050565b6000600160008373ffffffffffffffffffffffffffffffffffffffff1673ffffffffffffffffffffffffffffffffffffffff16815260200190815260200160002060010160009054906101000a900460ff169050919050565b6060600060149054906101000a900460ff161515611312576040517f08c379a00000000000000000000000000000000000000000000000000000000081526004018080602001828103825260258152602001807f436f6e74726163742069732063757272656e746c79206e6f74206f706572617481526020017f696f6e616c00000000000000000000000000000000000000000000000000000081525060400191505060405180910390fd5b600160003373ffffffffffffffffffffffffffffffffffffffff1673ffffffffffffffffffffffffffffffffffffffff1681526020019081526020016000206002018054806020026020016040519081016040528092919081815260200182805480156113a257602002820191906000526020600020905b8154600019168152602001906001019080831161138a575b5050505050905090565b6060600060149054906101000a900460ff161515611458576040517f08c379a00000000000000000000000000000000000000000000000000000000081526004018080602001828103825260258152602001807f436f6e74726163742069732063757272656e746c79206e6f74206f706572617481526020017f696f6e616c00000000000000000000000000000000000000000000000000000081525060400191505060405180910390fd5b60028054806020026020016040519081016040528092919081815260200182805480156114da57602002820191906000526020600020905b8160009054906101000a900473ffffffffffffffffffffffffffffffffffffffff1673ffffffffffffffffffffffffffffffffffffffff1681526020019060010190808311611490575b5050505050905090565b6000600454905090565b600160003373ffffffffffffffffffffffffffffffffffffffff1673ffffffffffffffffffffffffffffffffffffffff16815260200190815260200160002060020181908060018154018082558091505090600182039060005260206000200160009091929091909150906000191690555050565b600060149054906101000a900460ff16151561160d576040517f08c379a00000000000000000000000000000000000000000000000000000000081526004018080602001828103825260258152602001807f436f6e74726163742069732063757272656e746c79206e6f74206f706572617481526020017f696f6e616c00000000000000000000000000000000000000000000000000000081525060400191505060405180910390fd5b80600160008273ffffffffffffffffffffffffffffffffffffffff1673ffffffffffffffffffffffffffffffffffffffff16815260200190815260200160002060010160009054906101000a900460ff1615156116d2576040517f08c379a00000000000000000000000000000000000000000000000000000000081526004018080602001828103825260168152602001807f7261696c77617920646f6573206e6f742065786973740000000000000000000081525060200191505060405180910390fd5b600160008373ffffffffffffffffffffffffffffffffffffffff1673ffffffffffffffffffffffffffffffffffffffff16815260200190815260200160002060010160019054906101000a900460ff16151515611797576040517f08c379a000000000000000000000000000000000000000000000000000000000815260040180806020018281038252601a8152602001807f7261696c77617920616c7265616479207265676973746572656400000000000081525060200191505060405180910390fd5b60018060008473ffffffffffffffffffffffffffffffffffffffff1673ffffffffffffffffffffffffffffffffffffffff16815260200190815260200160002060010160016101000a81548160ff02191690831515021790555060028290806001815401808255809150509060018203906000526020600020016000909192909190916101000a81548173ffffffffffffffffffffffffffffffffffffffff021916908373ffffffffffffffffffffffffffffffffffffffff1602179055505061186d6001600454611e0390919063ffffffff16565b505050565b600060149054906101000a900460ff16151561191c576040517f08c379a00000000000000000000000000000000000000000000000000000000081526004018080602001828103825260258152602001807f436f6e74726163742069732063757272656e746c79206e6f74206f706572617481526020017f696f6e616c00000000000000000000000000000000000000000000000000000081525060400191505060405180910390fd5b60e06040519081016040528083838080601f0160208091040260200160405190810160405280939291908181526020018383808284378201915050505050508152602001600115158152602001841515815260200160001515815260200160006040519080825280602002602001820160405280156119aa5781602001602082028038833980820191505090505b508152602001602060405190810160405280600081525081526020016000815250600160008673ffffffffffffffffffffffffffffffffffffffff1673ffffffffffffffffffffffffffffffffffffffff1681526020019081526020016000206000820151816000019080519060200190611a26929190611e1f565b5060208201518160010160006101000a81548160ff02191690831515021790555060408201518160010160016101000a81548160ff02191690831515021790555060608201518160010160026101000a81548160ff0219169083151502179055506080820151816002019080519060200190611aa3929190611e9f565b5060a08201518160030160008201518160000155505060c08201518160050155905050611adc6001600654611e0390919063ffffffff16565b508215611b615760028490806001815401808255809150509060018203906000526020600020016000909192909190916101000a81548173ffffffffffffffffffffffffffffffffffffffff021916908373ffffffffffffffffffffffffffffffffffffffff16021790555050611b5f6001600454611e0390919063ffffffff16565b505b50505050565b60008060149054906101000a900460ff16905090565b60008060149054906101000a900460ff161515611c28576040517f08c379a00000000000000000000000000000000000000000000000000000000081526004018080602001828103825260258152602001807f436f6e74726163742069732063757272656e746c79206e6f74206f706572617481526020017f696f6e616c00000000000000000000000000000000000000000000000000000081525060400191505060405180910390fd5b600160008373ffffffffffffffffffffffffffffffffffffffff1673ffffffffffffffffffffffffffffffffffffffff168152602001908152602001600020600301600001549050919050565b600060149054906101000a900460ff161515611d1f576040517f08c379a00000000000000000000000000000000000000000000000000000000081526004018080602001828103825260258152602001807f436f6e74726163742069732063757272656e746c79206e6f74206f706572617481526020017f696f6e616c00000000000000000000000000000000000000000000000000000081525060400191505060405180910390fd5b60018060008373ffffffffffffffffffffffffffffffffffffffff1673ffffffffffffffffffffffffffffffffffffffff1681526020019081526020016000206005015401600160008373ffffffffffffffffffffffffffffffffffffffff1673ffffffffffffffffffffffffffffffffffffffff1681526020019081526020016000206005018190555050565b6000600360008373ffffffffffffffffffffffffffffffffffffffff1673ffffffffffffffffffffffffffffffffffffffff16815260200190815260200160002060009054906101000a900460ff169050919050565b60008183019050828110151515611e1657fe5b80905092915050565b828054600181600116156101000203166002900490600052602060002090601f016020900481019282601f10611e6057805160ff1916838001178555611e8e565b82800160010185558215611e8e579182015b82811115611e8d578251825591602001919060010190611e72565b5b509050611e9b9190611ef2565b5090565b828054828255906000526020600020908101928215611ee1579160200282015b82811115611ee0578251829060001916905591602001919060010190611ebf565b5b509050611eee9190611f17565b5090565b611f1491905b80821115611f10576000816000905550600101611ef8565b5090565b90565b611f3991905b80821115611f35576000816000905550600101611f1d565b5090565b905600a165627a7a72305820f41d5ac8b24db8b1886c937f48925668684cab8abe84a0a07b489864a4709a660029",
  "source": "pragma solidity >=0.4.25;\n\n// It's important to avoid vulnerabilities due to numeric overflow bugs\n// OpenZeppelin's SafeMath library, when used correctly, protects agains such bugs\n// More info: https://www.nccgroup.trust/us/about-us/newsroom-and-events/blog/2018/november/smart-contract-insecurity-bad-arithmetic/\n\nimport \"../node_modules/openzeppelin-solidity/contracts/math/SafeMath.sol\";\nimport \"./trainSuretyData.sol\";\n\n/************************************************** */\n/* trainSurety Smart Contract                      */\n/************************************************** */\ncontract trainSuretyApp {\n    using SafeMath for uint256; // Allow SafeMath functions to be called for all uint256 types (similar to \"prototype\" in Javascript)\n\n    /********************************************************************************************/\n    /*                                       DATA VARIABLES                                     */\n    /********************************************************************************************/\n\n    // train status codees\n    uint8 private constant STATUS_CODE_UNKNOWN = 0;\n    uint8 private constant STATUS_CODE_ON_TIME = 10;\n    uint8 private constant STATUS_CODE_LATE_railline = 20;\n    uint8 private constant STATUS_CODE_LATE_WEATHER = 30;\n    uint8 private constant STATUS_CODE_LATE_TECHNICAL = 40;\n    uint8 private constant STATUS_CODE_LATE_OTHER = 50;\n    address private contractOwner;          // Account used to deploy contract\n    bool private operational = true;\n    mapping(bytes32 => train) private trains;\n    trainSuretyData data;\n\n\n    event trainStatusInfo(address railline, string train, uint256 timestamp, uint8 status);\n    event OracleReport(address railline, string train, uint256 timestamp, uint8 status);\n    event OracleRequest(uint8 index, address railline, string train, uint256 timestamp);\n    event OperationalChange(bool change);\n    event Registeredrailline(bool threshold, uint votes);\n    event Registeredtrain(bytes32 trainNumber, uint256 date);\n\n    struct train {\n        address raillineAddress;\n        uint256 arrivalTime;  \n        uint256 trainStatus;\n        uint256 maxIndividualInsuredAmount; \n        uint256 maxTotalInsuredAmount;\n        mapping(address => uint256) accountInsuredAmount;\n        \n    }\n    \n  \n    /********************************************************************************************/\n    /*                                       FUNCTION MODIFIERS                                 */\n    /********************************************************************************************/\n\n    // Modifiers help avoid duplication of code. They are typically used to validate something\n    // before a function is allowed to be executed.\n\n    /**\n    * @dev Modifier that requires the \"operational\" boolean variable to be \"true\"\n    *      This is used on all state changing functions to pause the contract in \n    *      the event there is an issue that needs to be fixed\n    */\n    modifier requireIsOperational() \n    {\n         // Modify to call data contract's status\n        require(operational, \"Contract is currently not operational\");  \n        _;  // All modifiers require an \"_\" which indicates where the function body will be added\n    }\n    /**\n    * @dev Modifier that requires the \"ContractOwner\" account to be the function caller\n    */\n    modifier requireContractOwner()\n    {\n        require(msg.sender == contractOwner, \"Caller is not contract owner\");\n        _;\n    }\n    modifier requireraillineIsFunded(address raillineAddress) \n    {\n        require(data.isFunded(raillineAddress), \"railline is not funded\");\n        _;\n    }\n    modifier requireAddressIsrailline(address _address) {\n        require(data.raillineExists(_address), \"Address doesn't belong with an existing railline\");\n        _;\n    }\n    /********************************************************************************************/\n    /*                                       CONSTRUCTOR                                        */\n    /********************************************************************************************/\n\n    /**\n    * @dev Contract constructor\n    *\n    */\n    constructor\n                                (\n                                    address trainAddress\n                                ) \n                                public \n    {\n        contractOwner = msg.sender;\n        data = new trainSuretyData(trainAddress);\n    }\n    /********************************************************************************************/\n    /*                                       UTILITY FUNCTIONS                                  */\n    /********************************************************************************************/\n\n    function isOperationalApp() \n                            public \n                            view \n                            returns(bool) \n    {\n        return operational;  // Modify to call data contract's status\n    }\n\n    function setOperationalApp\n                            (\n                                bool mode\n                            ) \n                            public\n                            requireContractOwner \n                            returns(bool)\n    {\n        operational = mode;\n        emit OperationalChange(mode);\n    }\n\n    function isOperationalData()\n                                public\n                                view\n                                returns(bool)\n    {\n        return data.isOperational();\n    }\n\n    function setOperationalData(\n                                    bool mode\n                                )\n                                external\n                                requireContractOwner\n                                returns(bool)\n    {\n        data.setOperatingStatus(mode);\n        emit OperationalChange(mode);\n    }\n\n    function getRegisteredraillinesArray() public view requireIsOperational returns(address[] memory) {\n        return data.getRegisteredraillinesAddresses();\n    }\n\n    /********************************************************************************************/\n    /*                                     SMART CONTRACT FUNCTIONS                             */\n    /********************************************************************************************/\n//    View allows you to see the return value from the async/await code in the contract.js file\n    function gettrainNumberFromData(bytes32 trainCode) public view requireIsOperational \n        returns(\n        uint256 arrivalT,\n        uint256 status,\n        uint256 totalIndividualInsuredAmount,\n        uint256 individualtrainInsurees,\n        address raillineCompanyAddress\n        )\n    {\n        return (\n            trains[trainCode].arrivalTime,\n            trains[trainCode].trainStatus,\n            trains[trainCode].maxIndividualInsuredAmount,\n            trains[trainCode].accountInsuredAmount[msg.sender],\n            trains[trainCode].raillineAddress\n        );\n    }\n\n    function buyInsurance(bytes32 trainCode, address raillineAddress, uint256 amountBought) public payable requireIsOperational requireAddressIsrailline(raillineAddress) {\n        trains[trainCode].accountInsuredAmount[msg.sender] = trains[trainCode].accountInsuredAmount[msg.sender] + amountBought;\n        data.buy.value(msg.value)(raillineAddress);\n    }\n\n    \n   \n   /**\n    * @dev Add an railline to the registration queue\n    *\n    */   \n    function registerrailline\n                            (   \n                            address raillineToRegister,\n                            string raillineName\n                            )\n                            external\n                            requireIsOperational\n                            // returns(address[] memory)\n    {\n        //First check whether the number of registered raillines is less than 5 or greater\n        uint registeredraillines = data.getRegisteredraillines();\n        uint totalVotes = data.getraillineVotes(raillineToRegister);\n        require(data.raillineRegistered(msg.sender), \"The railline currently attempting to register another railline is not registered\");\n\n        if (registeredraillines >= 4) {\n            data.registerrailline(raillineToRegister, false, raillineName);\n            emit Registeredrailline(true, totalVotes);\n            // return data.getRegisteredraillinesAddresses();\n        } else { \n            data.registerrailline(raillineToRegister, true, raillineName);\n            emit Registeredrailline(true, totalVotes);\n            // return data.getRegisteredraillinesAddresses();\n        }    \n    }\n   /**\n    * @dev Register a future train for insuring.\n    * struct train {\n        uint256 arrivalTime;  \n        uint256 trainStatus;\n        uint256 maxIndividualInsuredAmount; \n        uint256 maxTotalInsuredAmount;\n        mapping(address => uint256) accountInsuredAmount;\n        \n    }\n    */  \n    \n\n\n    function registertrain\n                                (\n                                    bytes32 trainNumber,\n                                    uint256 date,\n                                    uint256 trainStatus,\n                                    uint256 maxIndividualInsuredAmount,\n                                    uint256 maxTotalInsuredAmount\n                                )\n                                external\n                                requireAddressIsrailline(msg.sender)\n                                requireIsOperational\n    {  \n \n        require(data.raillineRegistered(msg.sender), \"This address is not registered, it can not log trains\");\n        trains[trainNumber] =  train(msg.sender, date, trainStatus, maxIndividualInsuredAmount, maxTotalInsuredAmount);\n        data.addtrainCode(trainNumber);\n        emit Registeredtrain(trainNumber, date);\n    }\n    \n    function voterailline (address votingFor) public requireIsOperational requireraillineIsFunded(msg.sender) requireAddressIsrailline(votingFor) {\n        data.vote(msg.sender, votingFor);\n        bool isRegistered = data.raillineRegistered(votingFor);\n        uint voteCount = data.getraillineVotes(votingFor);\n        uint minimumVotes = data.getRegisteredraillines().div(2);\n        \n        if ( voteCount > minimumVotes && !isRegistered){\n            data.setraillineRegistered(votingFor);\n        }\n    }\n   /**\n    * @dev Called after oracle has updated train status\n    *\n    */  \n    function processtrainStatus\n                                (\n                                    address raillineAddress,\n                                    string memory train,\n                                    uint256 timestamp,\n                                    uint8 statusCode\n                                )\n                                internal\n                                pure\n    {\n    }\n    \n    function fundrailline(address _address) public payable requireIsOperational requireAddressIsrailline(_address) {\n        require(msg.sender == _address, \"Only the railline can fund itself\");\n        data.fund.value(msg.value)(_address);\n    }\n\n    // Generate a request for oracles to fetch train information\n    function fetchtrainStatus\n                        (   \n                            address railline,\n                            string train,\n                            uint256 timestamp                        \n                        )\n                        external\n    {\n        uint8 index = getRandomIndex(msg.sender);\n\n        // Generate a unique key for storing the request\n        bytes32 key = keccak256(abi.encodePacked(index, railline, train, timestamp));\n\n        \n        oracleResponses[key] = ResponseInfo({\n                                                requester: msg.sender,\n                                                isOpen: true\n                                            });\n\n        emit OracleRequest(index, railline, train, timestamp);\n    } \n    \n// region ORACLE MANAGEMENT\n\n    // Incremented to add pseudo-randomness at various points\n    uint8 private nonce = 0;    \n    // Fee to be paid when registering oracle\n    uint256 public constant REGISTRATION_FEE = 1 ether;\n\n    // Number of oracles that must respond for valid status\n    uint256 private constant MIN_RESPONSES = 3;\n    mapping(address => Oracle) private oracles;\n    mapping(bytes32 => ResponseInfo) private oracleResponses;\n    \n    struct Oracle {\n        bool isRegistered;\n        uint8[3] indexes;        \n    }\n    // Model for responses from oracles\n    struct ResponseInfo {\n        address requester;                              // Account that requested status\n        bool isOpen;                                    // If open, oracle responses are accepted\n        mapping(uint8 => address[]) responses;          // Mapping key is the status code reported\n                                                        // This lets us group responses and identify\n                                                        // the response that majority of the oracles\n    }\n\n    // Track all oracle responses\n    // Key = hash(index, train, timestamp)\n\n\n    // Register an oracle with the contract.\n    function registerOracle\n                            (\n                            )\n                            external\n                            payable\n    {\n        // Require registration fee\n        require(msg.value >= REGISTRATION_FEE, \"Registration fee is required\");\n        uint8[3] memory indexes = generateIndexes(msg.sender);\n        oracles[msg.sender] = Oracle({\n                                        isRegistered: true,\n                                        indexes: indexes\n                                    });\n    }\n\n    function getMyIndexes\n                            (\n                            )\n                            view\n                            external\n                            returns(uint8[3])\n    {\n        require(oracles[msg.sender].isRegistered, \"Not registered as an oracle\");\n        return oracles[msg.sender].indexes;\n    }\n\n\n\n\n    // Called by oracle when a response is available to an outstanding request\n    // For the response to be accepted, there must be a pending request that is open\n    // and matches one of the three Indexes randomly assigned to the oracle at the\n    // time of registration (i.e. uninvited oracles are not welcome)\n\n     /** \n        First the oracles list has to contain a address that is the same as msg.sender.\n        Second the oracle must have an index (it has 3 in total) that is the same as the index provided.\n     */\n    modifier oracleResponseCriteria(uint8 index) {\n        require((oracles[msg.sender].indexes[0] == index) \n        || (oracles[msg.sender].indexes[1] == index) \n        || (oracles[msg.sender].indexes[2] == index),\n         \"Index does not match oracle request\");\n         _;\n    }\n   \n\n    function submitOracleResponse\n                        (\n                            uint8 index,\n                            address railline,\n                            string train,\n                            uint256 timestamp,\n                            uint8 statusCode\n                        )\n                        external\n                        oracleResponseCriteria(index)\n    {\n        \n\n\n        bytes32 key = keccak256(abi.encodePacked(index, railline, train, timestamp)); \n        require(oracleResponses[key].isOpen, \"Oracle request already resolved\");\n        \n        oracleResponses[key].responses[statusCode].push(msg.sender);\n\n        // Information isn't considered verified until at least MIN_RESPONSES\n        // oracles respond with the *** same *** information\n        emit OracleReport(railline, train, timestamp, statusCode);\n        if (oracleResponses[key].responses[statusCode].length >= MIN_RESPONSES) {\n\n            emit trainStatusInfo(railline, train, timestamp, statusCode);\n\n            // Handle train status as appropriate\n            processtrainStatus(railline, train, timestamp, statusCode);\n        }\n    }\n\n\n    function gettrainKey\n                        (\n                            address railline,\n                            string train,\n                            uint256 timestamp\n                        )\n                        pure\n                        internal\n                        returns(bytes32) \n    {\n        return keccak256(abi.encodePacked(railline, train, timestamp));\n    }\n\n    // Returns array of three non-duplicating integers from 0-9\n    function generateIndexes\n                            (                       \n                                address account         \n                            )\n                            internal\n                            returns(uint8[3])\n    {\n        uint8[3] memory indexes;\n        indexes[0] = getRandomIndex(account);\n        \n        indexes[1] = indexes[0];\n        while(indexes[1] == indexes[0]) {\n            indexes[1] = getRandomIndex(account);\n        }\n\n        indexes[2] = indexes[1];\n        while((indexes[2] == indexes[0]) || (indexes[2] == indexes[1])) {\n            indexes[2] = getRandomIndex(account);\n        }\n\n        return indexes;\n    }\n\n    // Returns array of three non-duplicating integers from 0-9\n    function getRandomIndex\n                            (\n                                address account\n                            )\n                            internal\n                            returns (uint8)\n    {\n        uint8 maxValue = 10;\n\n        // Pseudo random number...the incrementing nonce adds variation\n        uint8 random = uint8(uint256(keccak256(abi.encodePacked(blockhash(block.number - nonce++), account))) % maxValue);\n\n        if (nonce > 250) {\n            nonce = 0;  // Can only fetch blockhashes for last 256 blocks so we adapt\n        }\n\n        return random;\n    }\n}   \n",
  "sourcePath": "D:/Flight_Insurance_Blockchain-master/Flight_Insurance_Blockchain-master/contracts/TrainSuretyApp.sol",
  "compiler": {
    "name": "solc",
    "version": "0.4.26+commit.4563c3fc.Emscripten.clang"
  },
  "schemaVersion": "3.0.1",
  "updatedAt": "2023-05-05T09:43:46.493Z",
  "devdoc": {
    "methods": {
      "registerrailline(address,string)": {
        "details": "Add an railline to the registration queue    "
      },
      "registertrain(bytes32,uint256,uint256,uint256,uint256)": {
        "details": "Register a future train for insuring. struct train { uint256 arrivalTime;   uint256 trainStatus; uint256 maxIndividualInsuredAmount;  uint256 maxTotalInsuredAmount; mapping(address => uint256) accountInsuredAmount; }"
      }
    }
  },
  "userdoc": {
    "methods": {
      "gettrainNumberFromData(bytes32)": {
        "notice": "*****************************************************************************************"
      },
      "isOperationalApp()": {
        "notice": "*****************************************************************************************"
      }
    }
  }
}